{
  "address": "0x403B4E99A983ca2587b651520C6006322Cae2A29",
  "abi": [
    {
      "inputs": [
        {
          "internalType": "address",
          "name": "_endpoint",
          "type": "address"
        },
        {
          "internalType": "uint256",
          "name": "_startTokenId",
          "type": "uint256"
        },
        {
          "internalType": "string",
          "name": "_baseUri",
          "type": "string"
        }
      ],
      "stateMutability": "nonpayable",
      "type": "constructor"
    },
    {
      "inputs": [],
      "name": "InsufficientGas",
      "type": "error"
    },
    {
      "inputs": [],
      "name": "NotTokenOwner",
      "type": "error"
    },
    {
      "inputs": [],
      "name": "URIQueryForNonexistentToken",
      "type": "error"
    },
    {
      "anonymous": false,
      "inputs": [
        {
          "indexed": true,
          "internalType": "address",
          "name": "owner",
          "type": "address"
        },
        {
          "indexed": true,
          "internalType": "address",
          "name": "approved",
          "type": "address"
        },
        {
          "indexed": true,
          "internalType": "uint256",
          "name": "tokenId",
          "type": "uint256"
        }
      ],
      "name": "Approval",
      "type": "event"
    },
    {
      "anonymous": false,
      "inputs": [
        {
          "indexed": true,
          "internalType": "address",
          "name": "owner",
          "type": "address"
        },
        {
          "indexed": true,
          "internalType": "address",
          "name": "operator",
          "type": "address"
        },
        {
          "indexed": false,
          "internalType": "bool",
          "name": "approved",
          "type": "bool"
        }
      ],
      "name": "ApprovalForAll",
      "type": "event"
    },
    {
      "anonymous": false,
      "inputs": [
        {
          "indexed": false,
          "internalType": "uint16",
          "name": "_srcChainId",
          "type": "uint16"
        },
        {
          "indexed": false,
          "internalType": "bytes",
          "name": "_srcAddress",
          "type": "bytes"
        },
        {
          "indexed": false,
          "internalType": "uint64",
          "name": "_nonce",
          "type": "uint64"
        },
        {
          "indexed": false,
          "internalType": "bytes",
          "name": "_payload",
          "type": "bytes"
        },
        {
          "indexed": false,
          "internalType": "bytes",
          "name": "_reason",
          "type": "bytes"
        }
      ],
      "name": "MessageFailed",
      "type": "event"
    },
    {
      "anonymous": false,
      "inputs": [
        {
          "indexed": true,
          "internalType": "address",
          "name": "previousOwner",
          "type": "address"
        },
        {
          "indexed": true,
          "internalType": "address",
          "name": "newOwner",
          "type": "address"
        }
      ],
      "name": "OwnershipTransferred",
      "type": "event"
    },
    {
      "anonymous": false,
      "inputs": [
        {
          "indexed": false,
          "internalType": "uint16",
          "name": "_srcChainId",
          "type": "uint16"
        },
        {
          "indexed": false,
          "internalType": "address",
          "name": "_from",
          "type": "address"
        },
        {
          "indexed": false,
          "internalType": "uint256",
          "name": "_tokenId",
          "type": "uint256"
        },
        {
          "indexed": false,
          "internalType": "uint256",
          "name": "counter",
          "type": "uint256"
        }
      ],
      "name": "ReceivedNFT",
      "type": "event"
    },
    {
      "anonymous": false,
      "inputs": [
        {
          "indexed": false,
          "internalType": "uint16",
          "name": "_srcChainId",
          "type": "uint16"
        },
        {
          "indexed": false,
          "internalType": "bytes",
          "name": "_srcAddress",
          "type": "bytes"
        },
        {
          "indexed": false,
          "internalType": "uint64",
          "name": "_nonce",
          "type": "uint64"
        },
        {
          "indexed": false,
          "internalType": "bytes32",
          "name": "_payloadHash",
          "type": "bytes32"
        }
      ],
      "name": "RetryMessageSuccess",
      "type": "event"
    },
    {
      "anonymous": false,
      "inputs": [
        {
          "indexed": false,
          "internalType": "uint16",
          "name": "_dstChainId",
          "type": "uint16"
        },
        {
          "indexed": false,
          "internalType": "uint16",
          "name": "_type",
          "type": "uint16"
        },
        {
          "indexed": false,
          "internalType": "uint256",
          "name": "_minDstGas",
          "type": "uint256"
        }
      ],
      "name": "SetMinDstGas",
      "type": "event"
    },
    {
      "anonymous": false,
      "inputs": [
        {
          "indexed": false,
          "internalType": "address",
          "name": "precrime",
          "type": "address"
        }
      ],
      "name": "SetPrecrime",
      "type": "event"
    },
    {
      "anonymous": false,
      "inputs": [
        {
          "indexed": false,
          "internalType": "uint16",
          "name": "_remoteChainId",
          "type": "uint16"
        },
        {
          "indexed": false,
          "internalType": "bytes",
          "name": "_path",
          "type": "bytes"
        }
      ],
      "name": "SetTrustedRemote",
      "type": "event"
    },
    {
      "anonymous": false,
      "inputs": [
        {
          "indexed": false,
          "internalType": "uint16",
          "name": "_remoteChainId",
          "type": "uint16"
        },
        {
          "indexed": false,
          "internalType": "bytes",
          "name": "_remoteAddress",
          "type": "bytes"
        }
      ],
      "name": "SetTrustedRemoteAddress",
      "type": "event"
    },
    {
      "anonymous": false,
      "inputs": [
        {
          "indexed": true,
          "internalType": "address",
          "name": "from",
          "type": "address"
        },
        {
          "indexed": true,
          "internalType": "address",
          "name": "to",
          "type": "address"
        },
        {
          "indexed": true,
          "internalType": "uint256",
          "name": "tokenId",
          "type": "uint256"
        }
      ],
      "name": "Transfer",
      "type": "event"
    },
    {
      "inputs": [],
      "name": "DEFAULT_PAYLOAD_SIZE_LIMIT",
      "outputs": [
        {
          "internalType": "uint256",
          "name": "",
          "type": "uint256"
        }
      ],
      "stateMutability": "view",
      "type": "function"
    },
    {
      "inputs": [],
      "name": "MAX_ID",
      "outputs": [
        {
          "internalType": "uint256",
          "name": "",
          "type": "uint256"
        }
      ],
      "stateMutability": "view",
      "type": "function"
    },
    {
      "inputs": [
        {
          "internalType": "address",
          "name": "to",
          "type": "address"
        },
        {
          "internalType": "uint256",
          "name": "tokenId",
          "type": "uint256"
        }
      ],
      "name": "approve",
      "outputs": [],
      "stateMutability": "nonpayable",
      "type": "function"
    },
    {
      "inputs": [
        {
          "internalType": "address",
          "name": "owner",
          "type": "address"
        }
      ],
      "name": "balanceOf",
      "outputs": [
        {
          "internalType": "uint256",
          "name": "",
          "type": "uint256"
        }
      ],
      "stateMutability": "view",
      "type": "function"
    },
    {
      "inputs": [],
      "name": "counter",
      "outputs": [
        {
          "internalType": "uint256",
          "name": "",
          "type": "uint256"
        }
      ],
      "stateMutability": "view",
      "type": "function"
    },
    {
      "inputs": [
        {
          "internalType": "uint16",
          "name": "dstChainId",
          "type": "uint16"
        },
        {
          "internalType": "uint256",
          "name": "tokenId",
          "type": "uint256"
        }
      ],
      "name": "crossChain",
      "outputs": [],
      "stateMutability": "payable",
      "type": "function"
    },
    {
      "inputs": [],
      "name": "currentTokenId",
      "outputs": [
        {
          "internalType": "uint256",
          "name": "",
          "type": "uint256"
        }
      ],
      "stateMutability": "view",
      "type": "function"
    },
    {
      "inputs": [
        {
          "internalType": "uint16",
          "name": "dstChainId",
          "type": "uint16"
        },
        {
          "internalType": "uint256",
          "name": "tokenId",
          "type": "uint256"
        }
      ],
      "name": "estimateFees",
      "outputs": [
        {
          "internalType": "uint256",
          "name": "",
          "type": "uint256"
        }
      ],
      "stateMutability": "view",
      "type": "function"
    },
    {
      "inputs": [
        {
          "internalType": "uint16",
          "name": "",
          "type": "uint16"
        },
        {
          "internalType": "bytes",
          "name": "",
          "type": "bytes"
        },
        {
          "internalType": "uint64",
          "name": "",
          "type": "uint64"
        }
      ],
      "name": "failedMessages",
      "outputs": [
        {
          "internalType": "bytes32",
          "name": "",
          "type": "bytes32"
        }
      ],
      "stateMutability": "view",
      "type": "function"
    },
    {
      "inputs": [
        {
          "internalType": "uint16",
          "name": "_srcChainId",
          "type": "uint16"
        },
        {
          "internalType": "bytes",
          "name": "_srcAddress",
          "type": "bytes"
        }
      ],
      "name": "forceResumeReceive",
      "outputs": [],
      "stateMutability": "nonpayable",
      "type": "function"
    },
    {
      "inputs": [
        {
          "internalType": "uint256",
          "name": "tokenId",
          "type": "uint256"
        }
      ],
      "name": "getApproved",
      "outputs": [
        {
          "internalType": "address",
          "name": "",
          "type": "address"
        }
      ],
      "stateMutability": "view",
      "type": "function"
    },
    {
      "inputs": [
        {
          "internalType": "uint16",
          "name": "_version",
          "type": "uint16"
        },
        {
          "internalType": "uint16",
          "name": "_chainId",
          "type": "uint16"
        },
        {
          "internalType": "address",
          "name": "",
          "type": "address"
        },
        {
          "internalType": "uint256",
          "name": "_configType",
          "type": "uint256"
        }
      ],
      "name": "getConfig",
      "outputs": [
        {
          "internalType": "bytes",
          "name": "",
          "type": "bytes"
        }
      ],
      "stateMutability": "view",
      "type": "function"
    },
    {
      "inputs": [
        {
          "internalType": "uint16",
          "name": "_remoteChainId",
          "type": "uint16"
        }
      ],
      "name": "getTrustedRemoteAddress",
      "outputs": [
        {
          "internalType": "bytes",
          "name": "",
          "type": "bytes"
        }
      ],
      "stateMutability": "view",
      "type": "function"
    },
    {
      "inputs": [
        {
          "internalType": "address",
          "name": "owner",
          "type": "address"
        },
        {
          "internalType": "address",
          "name": "operator",
          "type": "address"
        }
      ],
      "name": "isApprovedForAll",
      "outputs": [
        {
          "internalType": "bool",
          "name": "",
          "type": "bool"
        }
      ],
      "stateMutability": "view",
      "type": "function"
    },
    {
      "inputs": [
        {
          "internalType": "uint16",
          "name": "_srcChainId",
          "type": "uint16"
        },
        {
          "internalType": "bytes",
          "name": "_srcAddress",
          "type": "bytes"
        }
      ],
      "name": "isTrustedRemote",
      "outputs": [
        {
          "internalType": "bool",
          "name": "",
          "type": "bool"
        }
      ],
      "stateMutability": "view",
      "type": "function"
    },
    {
      "inputs": [],
      "name": "lzEndpoint",
      "outputs": [
        {
          "internalType": "contract ILayerZeroEndpoint",
          "name": "",
          "type": "address"
        }
      ],
      "stateMutability": "view",
      "type": "function"
    },
    {
      "inputs": [
        {
          "internalType": "uint16",
          "name": "_srcChainId",
          "type": "uint16"
        },
        {
          "internalType": "bytes",
          "name": "_srcAddress",
          "type": "bytes"
        },
        {
          "internalType": "uint64",
          "name": "_nonce",
          "type": "uint64"
        },
        {
          "internalType": "bytes",
          "name": "_payload",
          "type": "bytes"
        }
      ],
      "name": "lzReceive",
      "outputs": [],
      "stateMutability": "nonpayable",
      "type": "function"
    },
    {
      "inputs": [
        {
          "internalType": "uint16",
          "name": "",
          "type": "uint16"
        },
        {
          "internalType": "uint16",
          "name": "",
          "type": "uint16"
        }
      ],
      "name": "minDstGasLookup",
      "outputs": [
        {
          "internalType": "uint256",
          "name": "",
          "type": "uint256"
        }
      ],
      "stateMutability": "view",
      "type": "function"
    },
    {
      "inputs": [
        {
          "internalType": "uint256",
          "name": "quantity",
          "type": "uint256"
        }
      ],
      "name": "mint",
      "outputs": [],
      "stateMutability": "nonpayable",
      "type": "function"
    },
    {
      "inputs": [],
      "name": "name",
      "outputs": [
        {
          "internalType": "string",
          "name": "",
          "type": "string"
        }
      ],
      "stateMutability": "view",
      "type": "function"
    },
    {
      "inputs": [
        {
          "internalType": "uint16",
          "name": "_srcChainId",
          "type": "uint16"
        },
        {
          "internalType": "bytes",
          "name": "_srcAddress",
          "type": "bytes"
        },
        {
          "internalType": "uint64",
          "name": "_nonce",
          "type": "uint64"
        },
        {
          "internalType": "bytes",
          "name": "_payload",
          "type": "bytes"
        }
      ],
      "name": "nonblockingLzReceive",
      "outputs": [],
      "stateMutability": "nonpayable",
      "type": "function"
    },
    {
      "inputs": [],
      "name": "owner",
      "outputs": [
        {
          "internalType": "address",
          "name": "",
          "type": "address"
        }
      ],
      "stateMutability": "view",
      "type": "function"
    },
    {
      "inputs": [
        {
          "internalType": "uint256",
          "name": "tokenId",
          "type": "uint256"
        }
      ],
      "name": "ownerOf",
      "outputs": [
        {
          "internalType": "address",
          "name": "",
          "type": "address"
        }
      ],
      "stateMutability": "view",
      "type": "function"
    },
    {
      "inputs": [
        {
          "internalType": "uint16",
          "name": "",
          "type": "uint16"
        }
      ],
      "name": "payloadSizeLimitLookup",
      "outputs": [
        {
          "internalType": "uint256",
          "name": "",
          "type": "uint256"
        }
      ],
      "stateMutability": "view",
      "type": "function"
    },
    {
      "inputs": [],
      "name": "precrime",
      "outputs": [
        {
          "internalType": "address",
          "name": "",
          "type": "address"
        }
      ],
      "stateMutability": "view",
      "type": "function"
    },
    {
      "inputs": [],
      "name": "renounceOwnership",
      "outputs": [],
      "stateMutability": "nonpayable",
      "type": "function"
    },
    {
      "inputs": [
        {
          "internalType": "uint16",
          "name": "_srcChainId",
          "type": "uint16"
        },
        {
          "internalType": "bytes",
          "name": "_srcAddress",
          "type": "bytes"
        },
        {
          "internalType": "uint64",
          "name": "_nonce",
          "type": "uint64"
        },
        {
          "internalType": "bytes",
          "name": "_payload",
          "type": "bytes"
        }
      ],
      "name": "retryMessage",
      "outputs": [],
      "stateMutability": "payable",
      "type": "function"
    },
    {
      "inputs": [
        {
          "internalType": "address",
          "name": "from",
          "type": "address"
        },
        {
          "internalType": "address",
          "name": "to",
          "type": "address"
        },
        {
          "internalType": "uint256",
          "name": "tokenId",
          "type": "uint256"
        }
      ],
      "name": "safeTransferFrom",
      "outputs": [],
      "stateMutability": "nonpayable",
      "type": "function"
    },
    {
      "inputs": [
        {
          "internalType": "address",
          "name": "from",
          "type": "address"
        },
        {
          "internalType": "address",
          "name": "to",
          "type": "address"
        },
        {
          "internalType": "uint256",
          "name": "tokenId",
          "type": "uint256"
        },
        {
          "internalType": "bytes",
          "name": "data",
          "type": "bytes"
        }
      ],
      "name": "safeTransferFrom",
      "outputs": [],
      "stateMutability": "nonpayable",
      "type": "function"
    },
    {
      "inputs": [
        {
          "internalType": "address",
          "name": "operator",
          "type": "address"
        },
        {
          "internalType": "bool",
          "name": "approved",
          "type": "bool"
        }
      ],
      "name": "setApprovalForAll",
      "outputs": [],
      "stateMutability": "nonpayable",
      "type": "function"
    },
    {
      "inputs": [
        {
          "internalType": "uint16",
          "name": "_version",
          "type": "uint16"
        },
        {
          "internalType": "uint16",
          "name": "_chainId",
          "type": "uint16"
        },
        {
          "internalType": "uint256",
          "name": "_configType",
          "type": "uint256"
        },
        {
          "internalType": "bytes",
          "name": "_config",
          "type": "bytes"
        }
      ],
      "name": "setConfig",
      "outputs": [],
      "stateMutability": "nonpayable",
      "type": "function"
    },
    {
      "inputs": [
        {
          "internalType": "uint16",
          "name": "_dstChainId",
          "type": "uint16"
        },
        {
          "internalType": "uint16",
          "name": "_packetType",
          "type": "uint16"
        },
        {
          "internalType": "uint256",
          "name": "_minGas",
          "type": "uint256"
        }
      ],
      "name": "setMinDstGas",
      "outputs": [],
      "stateMutability": "nonpayable",
      "type": "function"
    },
    {
      "inputs": [
        {
          "internalType": "uint16",
          "name": "_dstChainId",
          "type": "uint16"
        },
        {
          "internalType": "uint256",
          "name": "_size",
          "type": "uint256"
        }
      ],
      "name": "setPayloadSizeLimit",
      "outputs": [],
      "stateMutability": "nonpayable",
      "type": "function"
    },
    {
      "inputs": [
        {
          "internalType": "address",
          "name": "_precrime",
          "type": "address"
        }
      ],
      "name": "setPrecrime",
      "outputs": [],
      "stateMutability": "nonpayable",
      "type": "function"
    },
    {
      "inputs": [
        {
          "internalType": "uint16",
          "name": "_version",
          "type": "uint16"
        }
      ],
      "name": "setReceiveVersion",
      "outputs": [],
      "stateMutability": "nonpayable",
      "type": "function"
    },
    {
      "inputs": [
        {
          "internalType": "uint16",
          "name": "_version",
          "type": "uint16"
        }
      ],
      "name": "setSendVersion",
      "outputs": [],
      "stateMutability": "nonpayable",
      "type": "function"
    },
    {
      "inputs": [
        {
          "internalType": "uint16",
          "name": "_srcChainId",
          "type": "uint16"
        },
        {
          "internalType": "bytes",
          "name": "_path",
          "type": "bytes"
        }
      ],
      "name": "setTrustedRemote",
      "outputs": [],
      "stateMutability": "nonpayable",
      "type": "function"
    },
    {
      "inputs": [
        {
          "internalType": "uint16",
          "name": "_remoteChainId",
          "type": "uint16"
        },
        {
          "internalType": "bytes",
          "name": "_remoteAddress",
          "type": "bytes"
        }
      ],
      "name": "setTrustedRemoteAddress",
      "outputs": [],
      "stateMutability": "nonpayable",
      "type": "function"
    },
    {
      "inputs": [
        {
          "internalType": "bytes4",
          "name": "interfaceId",
          "type": "bytes4"
        }
      ],
      "name": "supportsInterface",
      "outputs": [
        {
          "internalType": "bool",
          "name": "",
          "type": "bool"
        }
      ],
      "stateMutability": "view",
      "type": "function"
    },
    {
      "inputs": [],
      "name": "symbol",
      "outputs": [
        {
          "internalType": "string",
          "name": "",
          "type": "string"
        }
      ],
      "stateMutability": "view",
      "type": "function"
    },
    {
      "inputs": [
        {
          "internalType": "uint256",
          "name": "tokenId",
          "type": "uint256"
        }
      ],
      "name": "tokenURI",
      "outputs": [
        {
          "internalType": "string",
          "name": "",
          "type": "string"
        }
      ],
      "stateMutability": "view",
      "type": "function"
    },
    {
      "inputs": [
        {
          "internalType": "address",
          "name": "from",
          "type": "address"
        },
        {
          "internalType": "address",
          "name": "to",
          "type": "address"
        },
        {
          "internalType": "uint256",
          "name": "tokenId",
          "type": "uint256"
        }
      ],
      "name": "transferFrom",
      "outputs": [],
      "stateMutability": "nonpayable",
      "type": "function"
    },
    {
      "inputs": [
        {
          "internalType": "address",
          "name": "newOwner",
          "type": "address"
        }
      ],
      "name": "transferOwnership",
      "outputs": [],
      "stateMutability": "nonpayable",
      "type": "function"
    },
    {
      "inputs": [
        {
          "internalType": "uint16",
          "name": "",
          "type": "uint16"
        }
      ],
      "name": "trustedRemoteLookup",
      "outputs": [
        {
          "internalType": "bytes",
          "name": "",
          "type": "bytes"
        }
      ],
      "stateMutability": "view",
      "type": "function"
    }
  ],
  "transactionHash": "0xce9c791113edc49486687b6e67a74b0f94644518b5cfae07fc1d7deb21506a32",
  "args": [
    "0x6aB5Ae6822647046626e83ee6dB8187151E1d5ab",
    400000,
    "https://gateway.pinata.cloud/ipfs/QmQtxJvWjXhEwL7RTKnntPRASsKH4FTVydmaVYnRteGzUp/"
  ],
  "numDeployments": 1,
  "solcInputHash": "ec9ab04a90507772b32f6f03f3f260e9",
  "bytecode": "0x60c06040523480156200001157600080fd5b5060405162003fb938038062003fb983398101604081905262000034916200015e565b6040518060400160405280601081526020016f131191d0dc9bdcdcd0da185a5b93919560821b815250604051806040016040528060038152602001624c464760e81b8152508480620000956200008f620000f460201b60201c565b620000f8565b6001600160a01b0316608052506006620000b08382620002ec565b506007620000bf8282620002ec565b50600e9150620000d290508282620002ec565b50600d829055620000e7826201869f620003b8565b60a05250620003e0915050565b3390565b600080546001600160a01b038381166001600160a01b0319831681178455604051919092169283917f8be0079c531659141344cd1fd0a4f28419497f9722a3daafe3b4186f6b6457e09190a35050565b634e487b7160e01b600052604160045260246000fd5b6000806000606084860312156200017457600080fd5b83516001600160a01b03811681146200018c57600080fd5b60208581015160408701519295509350906001600160401b0380821115620001b357600080fd5b818701915087601f830112620001c857600080fd5b815181811115620001dd57620001dd62000148565b604051601f8201601f19908116603f0116810190838211818310171562000208576200020862000148565b816040528281528a868487010111156200022157600080fd5b600093505b8284101562000245578484018601518185018701529285019262000226565b60008684830101528096505050505050509250925092565b600181811c908216806200027257607f821691505b6020821081036200029357634e487b7160e01b600052602260045260246000fd5b50919050565b601f821115620002e757600081815260208120601f850160051c81016020861015620002c25750805b601f850160051c820191505b81811015620002e357828155600101620002ce565b5050505b505050565b81516001600160401b0381111562000308576200030862000148565b62000320816200031984546200025d565b8462000299565b602080601f8311600181146200035857600084156200033f5750858301515b600019600386901b1c1916600185901b178555620002e3565b600085815260208120601f198616915b82811015620003895788860151825594840194600190910190840162000368565b5085821015620003a85787850151600019600388901b60f8161c191681555b5050505050600190811b01905550565b80820180821115620003da57634e487b7160e01b600052601160045260246000fd5b92915050565b60805160a051613b746200044560003960006103d10152600081816106ea0152818161088101528181610bb401528181610d9801528181610e7801528181610fbf01528181611157015281816117e501528181611c2701526120150152613b746000f3fe6080604052600436106102655760003560e01c8063715018a611610144578063b88d4fde116100b6578063d1deba1f1161007a578063d1deba1f146107a2578063df2a5b3b146107b5578063e985e9c5146107d5578063eb8d72b71461081e578063f2fde38b1461083e578063f5ecbdbc1461085e57600080fd5b8063b88d4fde1461070c578063baf3292d1461072c578063c44618341461074c578063c87b56dd14610762578063cbed8b9c1461078257600080fd5b806395d89b411161010857806395d89b41146106435780639f38369a14610658578063a0712d6814610678578063a22cb46514610698578063a6c3d165146106b8578063b353aaa7146106d857600080fd5b8063715018a6146105985780637533d788146105ad5780638cfd8f5c146105cd5780638da5cb5b14610605578063950c8a741461062357600080fd5b806323b872dd116101dd57806342d65a8d116101a157806342d65a8d146104b35780635b8c41e6146104d357806361bc221a146105225780636352211e1461053857806366ad5c8a1461055857806370a082311461057857600080fd5b806323b872dd14610406578063362790f6146104265780633d8b38f6146104465780633f1f4fa41461046657806342842e0e1461049357600080fd5b8063081812fc1161022f578063081812fc14610327578063095ea7b31461035f5780630df374831461037f57806310ddb1371461039f57806317bac052146103bf5780631e128296146103f357600080fd5b80621d35671461026a5780629a9b7b1461028c57806301ffc9a7146102b557806306fdde03146102e557806307e0db1714610307575b600080fd5b34801561027657600080fd5b5061028a610285366004612d52565b61087e565b005b34801561029857600080fd5b506102a2600d5481565b6040519081526020015b60405180910390f35b3480156102c157600080fd5b506102d56102d0366004612dfb565b610aaf565b60405190151581526020016102ac565b3480156102f157600080fd5b506102fa610b01565b6040516102ac9190612e68565b34801561031357600080fd5b5061028a610322366004612e7b565b610b93565b34801561033357600080fd5b50610347610342366004612e96565b610c1c565b6040516001600160a01b0390911681526020016102ac565b34801561036b57600080fd5b5061028a61037a366004612ec4565b610c43565b34801561038b57600080fd5b5061028a61039a366004612ef0565b610d58565b3480156103ab57600080fd5b5061028a6103ba366004612e7b565b610d77565b3480156103cb57600080fd5b506102a27f000000000000000000000000000000000000000000000000000000000000000081565b61028a610401366004612ef0565b610dcf565b34801561041257600080fd5b5061028a610421366004612f0c565b610f2f565b34801561043257600080fd5b506102a2610441366004612ef0565b610f60565b34801561045257600080fd5b506102d5610461366004612f4d565b611051565b34801561047257600080fd5b506102a2610481366004612e7b565b60036020526000908152604090205481565b34801561049f57600080fd5b5061028a6104ae366004612f0c565b61111d565b3480156104bf57600080fd5b5061028a6104ce366004612f4d565b611138565b3480156104df57600080fd5b506102a26104ee366004613062565b6005602090815260009384526040808520845180860184018051928152908401958401959095209452929052825290205481565b34801561052e57600080fd5b506102a2600c5481565b34801561054457600080fd5b50610347610553366004612e96565b6111be565b34801561056457600080fd5b5061028a610573366004612d52565b61121e565b34801561058457600080fd5b506102a26105933660046130bf565b6112fa565b3480156105a457600080fd5b5061028a611380565b3480156105b957600080fd5b506102fa6105c8366004612e7b565b611394565b3480156105d957600080fd5b506102a26105e83660046130dc565b600260209081526000928352604080842090915290825290205481565b34801561061157600080fd5b506000546001600160a01b0316610347565b34801561062f57600080fd5b50600454610347906001600160a01b031681565b34801561064f57600080fd5b506102fa61142e565b34801561066457600080fd5b506102fa610673366004612e7b565b61143d565b34801561068457600080fd5b5061028a610693366004612e96565b611553565b3480156106a457600080fd5b5061028a6106b336600461310f565b6115bb565b3480156106c457600080fd5b5061028a6106d3366004612f4d565b6115ca565b3480156106e457600080fd5b506103477f000000000000000000000000000000000000000000000000000000000000000081565b34801561071857600080fd5b5061028a61072736600461314d565b611653565b34801561073857600080fd5b5061028a6107473660046130bf565b61168b565b34801561075857600080fd5b506102a261271081565b34801561076e57600080fd5b506102fa61077d366004612e96565b6116e7565b34801561078e57600080fd5b5061028a61079d3660046131b8565b6117c6565b61028a6107b0366004612d52565b61185b565b3480156107c157600080fd5b5061028a6107d0366004613226565b611a71565b3480156107e157600080fd5b506102d56107f0366004613262565b6001600160a01b039182166000908152600b6020908152604080832093909416825291909152205460ff1690565b34801561082a57600080fd5b5061028a610839366004612f4d565b611b23565b34801561084a57600080fd5b5061028a6108593660046130bf565b611b7d565b34801561086a57600080fd5b506102fa610879366004613290565b611bf6565b337f00000000000000000000000000000000000000000000000000000000000000006001600160a01b0316146108fb5760405162461bcd60e51b815260206004820152601e60248201527f4c7a4170703a20696e76616c696420656e64706f696e742063616c6c6572000060448201526064015b60405180910390fd5b61ffff861660009081526001602052604081208054610919906132dd565b80601f0160208091040260200160405190810160405280929190818152602001828054610945906132dd565b80156109925780601f1061096757610100808354040283529160200191610992565b820191906000526020600020905b81548152906001019060200180831161097557829003601f168201915b505050505090508051868690501480156109ad575060008151115b80156109d55750805160208201206040516109cb9088908890613317565b6040518091039020145b610a305760405162461bcd60e51b815260206004820152602660248201527f4c7a4170703a20696e76616c696420736f757263652073656e64696e6720636f6044820152651b9d1c9858dd60d21b60648201526084016108f2565b610aa68787878080601f01602080910402602001604051908101604052809392919081815260200183838082843760009201919091525050604080516020601f8a018190048102820181019092528881528a935091508890889081908401838280828437600092019190915250611ca992505050565b50505050505050565b60006001600160e01b031982166380ac58cd60e01b1480610ae057506001600160e01b03198216635b5e139f60e01b145b80610afb57506301ffc9a760e01b6001600160e01b03198316145b92915050565b606060068054610b10906132dd565b80601f0160208091040260200160405190810160405280929190818152602001828054610b3c906132dd565b8015610b895780601f10610b5e57610100808354040283529160200191610b89565b820191906000526020600020905b815481529060010190602001808311610b6c57829003601f168201915b5050505050905090565b610b9b611d22565b6040516307e0db1760e01b815261ffff821660048201527f00000000000000000000000000000000000000000000000000000000000000006001600160a01b0316906307e0db17906024015b600060405180830381600087803b158015610c0157600080fd5b505af1158015610c15573d6000803e3d6000fd5b5050505050565b6000610c2782611d7c565b506000908152600a60205260409020546001600160a01b031690565b6000610c4e826111be565b9050806001600160a01b0316836001600160a01b031603610cbb5760405162461bcd60e51b815260206004820152602160248201527f4552433732313a20617070726f76616c20746f2063757272656e74206f776e656044820152603960f91b60648201526084016108f2565b336001600160a01b0382161480610cd75750610cd781336107f0565b610d495760405162461bcd60e51b815260206004820152603d60248201527f4552433732313a20617070726f76652063616c6c6572206973206e6f7420746f60448201527f6b656e206f776e6572206f7220617070726f76656420666f7220616c6c00000060648201526084016108f2565b610d538383611ddb565b505050565b610d60611d22565b61ffff909116600090815260036020526040902055565b610d7f611d22565b6040516310ddb13760e01b815261ffff821660048201527f00000000000000000000000000000000000000000000000000000000000000006001600160a01b0316906310ddb13790602401610be7565b610dd8816111be565b6001600160a01b0316336001600160a01b031614610e09576040516359dc379f60e01b815260040160405180910390fd5b600c8054600019019055610e1c81611e49565b60408051336020820152808201839052815180820383018152606082018352600160f01b60808301526205573060828084018290528451808503909101815260a284019485905263040a7bb160e41b90945290926001926000907f00000000000000000000000000000000000000000000000000000000000000006001600160a01b0316906340a7bb1090610ebd908a9030908a908790899060a601613327565b6040805180830381865afa158015610ed9573d6000803e3d6000fd5b505050506040513d601f19601f82011682018060405250810190610efd919061337b565b509050803411610f20576040516307099c5360e21b815260040160405180910390fd5b610aa687863360008634611eec565b610f393382612091565b610f555760405162461bcd60e51b81526004016108f29061339f565b610d5383838361210f565b60408051336020820152808201839052815180820383018152606082018352600160f01b60808301526205573060828084018290528451808503909101815260a284019485905263040a7bb160e41b90945260009391926001929085907f00000000000000000000000000000000000000000000000000000000000000006001600160a01b0316906340a7bb1090611004908b9030908a908790899060a601613327565b6040805180830381865afa158015611020573d6000803e3d6000fd5b505050506040513d601f19601f82011682018060405250810190611044919061337b565b5098975050505050505050565b61ffff831660009081526001602052604081208054829190611072906132dd565b80601f016020809104026020016040519081016040528092919081815260200182805461109e906132dd565b80156110eb5780601f106110c0576101008083540402835291602001916110eb565b820191906000526020600020905b8154815290600101906020018083116110ce57829003601f168201915b505050505090508383604051611102929190613317565b60405180910390208180519060200120149150509392505050565b610d5383838360405180602001604052806000815250611653565b611140611d22565b6040516342d65a8d60e01b81526001600160a01b037f000000000000000000000000000000000000000000000000000000000000000016906342d65a8d9061119090869086908690600401613415565b600060405180830381600087803b1580156111aa57600080fd5b505af1158015610aa6573d6000803e3d6000fd5b6000818152600860205260408120546001600160a01b031680610afb5760405162461bcd60e51b8152602060048201526018602482015277115490cdcc8c4e881a5b9d985b1a59081d1bdad95b88125160421b60448201526064016108f2565b33301461127c5760405162461bcd60e51b815260206004820152602660248201527f4e6f6e626c6f636b696e674c7a4170703a2063616c6c6572206d7573742062656044820152650204c7a4170760d41b60648201526084016108f2565b6112f28686868080601f01602080910402602001604051908101604052809392919081815260200183838082843760009201919091525050604080516020601f89018190048102820181019092528781528993509150879087908190840183828082843760009201919091525061228092505050565b505050505050565b60006001600160a01b0382166113645760405162461bcd60e51b815260206004820152602960248201527f4552433732313a2061646472657373207a65726f206973206e6f7420612076616044820152683634b21037bbb732b960b91b60648201526084016108f2565b506001600160a01b031660009081526009602052604090205490565b611388611d22565b611392600061230b565b565b600160205260009081526040902080546113ad906132dd565b80601f01602080910402602001604051908101604052809291908181526020018280546113d9906132dd565b80156114265780601f106113fb57610100808354040283529160200191611426565b820191906000526020600020905b81548152906001019060200180831161140957829003601f168201915b505050505081565b606060078054610b10906132dd565b61ffff8116600090815260016020526040812080546060929190611460906132dd565b80601f016020809104026020016040519081016040528092919081815260200182805461148c906132dd565b80156114d95780601f106114ae576101008083540402835291602001916114d9565b820191906000526020600020905b8154815290600101906020018083116114bc57829003601f168201915b5050505050905080516000036115315760405162461bcd60e51b815260206004820152601d60248201527f4c7a4170703a206e6f20747275737465642070617468207265636f726400000060448201526064016108f2565b61154c6000601483516115449190613449565b83919061235b565b9392505050565b60005b81811015611587576115753382600d54611570919061345c565b612468565b8061157f8161346f565b915050611556565b5080600d600082825461159a919061345c565b9250508190555080600c60008282546115b3919061345c565b909155505050565b6115c6338383612601565b5050565b6115d2611d22565b8181306040516020016115e793929190613488565b60408051601f1981840301815291815261ffff851660009081526001602052209061161290826134f4565b507f8c0400cfe2d1199b1a725c78960bcc2a344d869b80590d0f2bd005db15a572ce83838360405161164693929190613415565b60405180910390a1505050565b61165d3383612091565b6116795760405162461bcd60e51b81526004016108f29061339f565b611685848484846126cf565b50505050565b611693611d22565b600480546001600160a01b0319166001600160a01b0383169081179091556040519081527f5db758e995a17ec1ad84bdef7e8c3293a0bd6179bcce400dff5d4c3d87db726b9060200160405180910390a150565b6000818152600860205260409020546060906001600160a01b031661171f57604051630a14c4b560e41b815260040160405180910390fd5b600061172c6002846135c9565b90506000811561173d576001611740565b60005b60ff1690506000611797600e61175584612702565b6040516020016117669291906135dd565b60408051601f198184030181529082905261178391602001613673565b604051602081830303815290604052612794565b90506000816040516020016117ac91906136b3565b60408051601f198184030181529190529695505050505050565b6117ce611d22565b6040516332fb62e760e21b81526001600160a01b037f0000000000000000000000000000000000000000000000000000000000000000169063cbed8b9c9061182290889088908890889088906004016136f8565b600060405180830381600087803b15801561183c57600080fd5b505af1158015611850573d6000803e3d6000fd5b505050505050505050565b61ffff8616600090815260056020526040808220905161187e9088908890613317565b90815260408051602092819003830190206001600160401b038716600090815292529020549050806118fe5760405162461bcd60e51b815260206004820152602360248201527f4e6f6e626c6f636b696e674c7a4170703a206e6f2073746f726564206d65737360448201526261676560e81b60648201526084016108f2565b80838360405161190f929190613317565b60405180910390201461196e5760405162461bcd60e51b815260206004820152602160248201527f4e6f6e626c6f636b696e674c7a4170703a20696e76616c6964207061796c6f616044820152601960fa1b60648201526084016108f2565b61ffff871660009081526005602052604080822090516119919089908990613317565b90815260408051602092819003830181206001600160401b038916600090815290845282902093909355601f88018290048202830182019052868252611a29918991899089908190840183828082843760009201919091525050604080516020601f8a018190048102820181019092528881528a93509150889088908190840183828082843760009201919091525061228092505050565b7fc264d91f3adc5588250e1551f547752ca0cfa8f6b530d243b9f9f4cab10ea8e58787878785604051611a60959493929190613731565b60405180910390a150505050505050565b611a79611d22565b60008111611ac15760405162461bcd60e51b81526020600482015260156024820152744c7a4170703a20696e76616c6964206d696e47617360581b60448201526064016108f2565b61ffff83811660008181526002602090815260408083209487168084529482529182902085905581519283528201929092529081018290527f9d5c7c0b934da8fefa9c7760c98383778a12dfbfc0c3b3106518f43fb9508ac090606001611646565b611b2b611d22565b61ffff83166000908152600160205260409020611b4982848361376c565b507ffa41487ad5d6728f0b19276fa1eddc16558578f5109fc39d2dc33c3230470dab83838360405161164693929190613415565b611b85611d22565b6001600160a01b038116611bea5760405162461bcd60e51b815260206004820152602660248201527f4f776e61626c653a206e6577206f776e657220697320746865207a65726f206160448201526564647265737360d01b60648201526084016108f2565b611bf38161230b565b50565b604051633d7b2f6f60e21b815261ffff808616600483015284166024820152306044820152606481018290526060907f00000000000000000000000000000000000000000000000000000000000000006001600160a01b03169063f5ecbdbc90608401600060405180830381865afa158015611c76573d6000803e3d6000fd5b505050506040513d6000823e601f3d908101601f19168201604052611c9e919081019061382b565b90505b949350505050565b600080611d0c5a60966366ad5c8a60e01b89898989604051602401611cd194939291906138a1565b60408051601f198184030181529190526020810180516001600160e01b03166001600160e01b031990931692909217909152309291906128e6565b91509150816112f2576112f28686868685612970565b6000546001600160a01b031633146113925760405162461bcd60e51b815260206004820181905260248201527f4f776e61626c653a2063616c6c6572206973206e6f7420746865206f776e657260448201526064016108f2565b6000818152600860205260409020546001600160a01b0316611bf35760405162461bcd60e51b8152602060048201526018602482015277115490cdcc8c4e881a5b9d985b1a59081d1bdad95b88125160421b60448201526064016108f2565b6000818152600a6020526040902080546001600160a01b0319166001600160a01b0384169081179091558190611e10826111be565b6001600160a01b03167f8c5be1e5ebec7d5bd14f71427d1e84f3dd0314c0f7b2291e5b200ac8c7c3b92560405160405180910390a45050565b6000611e54826111be565b9050611e64816000846001612a0d565b611e6d826111be565b6000838152600a6020908152604080832080546001600160a01b03199081169091556001600160a01b0385168085526009845282852080546000190190558785526008909352818420805490911690555192935084927fddf252ad1be2c89b69c2b068fc378daa952ba7f163c4a11628f55a4df523b3ef908390a45050565b61ffff861660009081526001602052604081208054611f0a906132dd565b80601f0160208091040260200160405190810160405280929190818152602001828054611f36906132dd565b8015611f835780601f10611f5857610100808354040283529160200191611f83565b820191906000526020600020905b815481529060010190602001808311611f6657829003601f168201915b505050505090508051600003611ff45760405162461bcd60e51b815260206004820152603060248201527f4c7a4170703a2064657374696e6174696f6e20636861696e206973206e6f742060448201526f61207472757374656420736f7572636560801b60648201526084016108f2565b611fff878751612a95565b60405162c5803160e81b81526001600160a01b037f0000000000000000000000000000000000000000000000000000000000000000169063c5803100908490612056908b9086908c908c908c908c906004016138df565b6000604051808303818588803b15801561206f57600080fd5b505af1158015612083573d6000803e3d6000fd5b505050505050505050505050565b60008061209d836111be565b9050806001600160a01b0316846001600160a01b031614806120e457506001600160a01b038082166000908152600b602090815260408083209388168352929052205460ff165b80611ca15750836001600160a01b03166120fd84610c1c565b6001600160a01b031614949350505050565b826001600160a01b0316612122826111be565b6001600160a01b0316146121485760405162461bcd60e51b81526004016108f290613946565b6001600160a01b0382166121aa5760405162461bcd60e51b8152602060048201526024808201527f4552433732313a207472616e7366657220746f20746865207a65726f206164646044820152637265737360e01b60648201526084016108f2565b6121b78383836001612a0d565b826001600160a01b03166121ca826111be565b6001600160a01b0316146121f05760405162461bcd60e51b81526004016108f290613946565b6000818152600a6020908152604080832080546001600160a01b03199081169091556001600160a01b0387811680865260098552838620805460001901905590871680865283862080546001019055868652600890945282852080549092168417909155905184937fddf252ad1be2c89b69c2b068fc378daa952ba7f163c4a11628f55a4df523b3ef91a4505050565b600060148401519050600080838060200190518101906122a0919061398b565b915091506122ae8282612468565b600c8054600101908190556040805161ffff8a1681526001600160a01b038616602082015290810183905260608101919091527f31ae2bb20187b24b2039def7711f43f56311ec96de17b7ef01d1b1da40eb2eee90608001611a60565b600080546001600160a01b038381166001600160a01b0319831681178455604051919092169283917f8be0079c531659141344cd1fd0a4f28419497f9722a3daafe3b4186f6b6457e09190a35050565b60608161236981601f61345c565b10156123a85760405162461bcd60e51b815260206004820152600e60248201526d736c6963655f6f766572666c6f7760901b60448201526064016108f2565b6123b2828461345c565b845110156123f65760405162461bcd60e51b8152602060048201526011602482015270736c6963655f6f75744f66426f756e647360781b60448201526064016108f2565b606082158015612415576040519150600082526020820160405261245f565b6040519150601f8416801560200281840101858101878315602002848b0101015b8183101561244e578051835260209283019201612436565b5050858452601f01601f1916604052505b50949350505050565b6001600160a01b0382166124be5760405162461bcd60e51b815260206004820181905260248201527f4552433732313a206d696e7420746f20746865207a65726f206164647265737360448201526064016108f2565b6000818152600860205260409020546001600160a01b0316156125235760405162461bcd60e51b815260206004820152601c60248201527f4552433732313a20746f6b656e20616c7265616479206d696e7465640000000060448201526064016108f2565b612531600083836001612a0d565b6000818152600860205260409020546001600160a01b0316156125965760405162461bcd60e51b815260206004820152601c60248201527f4552433732313a20746f6b656e20616c7265616479206d696e7465640000000060448201526064016108f2565b6001600160a01b038216600081815260096020908152604080832080546001019055848352600890915280822080546001600160a01b0319168417905551839291907fddf252ad1be2c89b69c2b068fc378daa952ba7f163c4a11628f55a4df523b3ef908290a45050565b816001600160a01b0316836001600160a01b0316036126625760405162461bcd60e51b815260206004820152601960248201527f4552433732313a20617070726f766520746f2063616c6c65720000000000000060448201526064016108f2565b6001600160a01b038381166000818152600b6020908152604080832094871680845294825291829020805460ff191686151590811790915591519182527f17307eab39ab6107e8899845ad3d59bd9653f200f220920489ca2b5937696c31910160405180910390a3505050565b6126da84848461210f565b6126e684848484612b06565b6116855760405162461bcd60e51b81526004016108f2906139b9565b6060600061270f83612c04565b60010190506000816001600160401b0381111561272e5761272e612f9f565b6040519080825280601f01601f191660200182016040528015612758576020820181803683370190505b5090508181016020015b600019016f181899199a1a9b1b9c1cb0b131b232b360811b600a86061a8153600a850494508461276257509392505050565b606081516000036127b357505060408051602081019091526000815290565b6000604051806060016040528060408152602001613aff60409139905060006003845160026127e2919061345c565b6127ec9190613a0b565b6127f7906004613a1f565b6001600160401b0381111561280e5761280e612f9f565b6040519080825280601f01601f191660200182016040528015612838576020820181803683370190505b509050600182016020820185865187015b808210156128a4576003820191508151603f8160121c168501518453600184019350603f81600c1c168501518453600184019350603f8160061c168501518453600184019350603f8116850151845350600183019250612849565b50506003865106600181146128c057600281146128d3576128db565b603d6001830353603d60028303536128db565b603d60018303535b509195945050505050565b6000606060008060008661ffff166001600160401b0381111561290b5761290b612f9f565b6040519080825280601f01601f191660200182016040528015612935576020820181803683370190505b50905060008087516020890160008d8df191503d925086831115612957578692505b828152826000602083013e909890975095505050505050565b8180519060200120600560008761ffff1661ffff168152602001908152602001600020856040516129a19190613a36565b9081526040805191829003602090810183206001600160401b0388166000908152915220919091557fe183f33de2837795525b4792ca4cd60535bd77c53b7e7030060bfcf5734d6b0c906129fe9087908790879087908790613a52565b60405180910390a15050505050565b6001811115611685576001600160a01b03841615612a53576001600160a01b03841660009081526009602052604081208054839290612a4d908490613449565b90915550505b6001600160a01b03831615611685576001600160a01b03831660009081526009602052604081208054839290612a8a90849061345c565b909155505050505050565b61ffff821660009081526003602052604081205490819003612ab657506127105b80821115610d535760405162461bcd60e51b815260206004820181905260248201527f4c7a4170703a207061796c6f61642073697a6520697320746f6f206c6172676560448201526064016108f2565b60006001600160a01b0384163b15612bfc57604051630a85bd0160e11b81526001600160a01b0385169063150b7a0290612b4a903390899088908890600401613aa4565b6020604051808303816000875af1925050508015612b85575060408051601f3d908101601f19168201909252612b8291810190613ae1565b60015b612be2573d808015612bb3576040519150601f19603f3d011682016040523d82523d6000602084013e612bb8565b606091505b508051600003612bda5760405162461bcd60e51b81526004016108f2906139b9565b805181602001fd5b6001600160e01b031916630a85bd0160e11b149050611ca1565b506001611ca1565b60008072184f03e93ff9f4daa797ed6e38ed64bf6a1f0160401b8310612c435772184f03e93ff9f4daa797ed6e38ed64bf6a1f0160401b830492506040015b6d04ee2d6d415b85acef81000000008310612c6f576d04ee2d6d415b85acef8100000000830492506020015b662386f26fc100008310612c8d57662386f26fc10000830492506010015b6305f5e1008310612ca5576305f5e100830492506008015b6127108310612cb957612710830492506004015b60648310612ccb576064830492506002015b600a8310610afb5760010192915050565b803561ffff81168114612cee57600080fd5b919050565b60008083601f840112612d0557600080fd5b5081356001600160401b03811115612d1c57600080fd5b602083019150836020828501011115612d3457600080fd5b9250929050565b80356001600160401b0381168114612cee57600080fd5b60008060008060008060808789031215612d6b57600080fd5b612d7487612cdc565b955060208701356001600160401b0380821115612d9057600080fd5b612d9c8a838b01612cf3565b9097509550859150612db060408a01612d3b565b94506060890135915080821115612dc657600080fd5b50612dd389828a01612cf3565b979a9699509497509295939492505050565b6001600160e01b031981168114611bf357600080fd5b600060208284031215612e0d57600080fd5b813561154c81612de5565b60005b83811015612e33578181015183820152602001612e1b565b50506000910152565b60008151808452612e54816020860160208601612e18565b601f01601f19169290920160200192915050565b60208152600061154c6020830184612e3c565b600060208284031215612e8d57600080fd5b61154c82612cdc565b600060208284031215612ea857600080fd5b5035919050565b6001600160a01b0381168114611bf357600080fd5b60008060408385031215612ed757600080fd5b8235612ee281612eaf565b946020939093013593505050565b60008060408385031215612f0357600080fd5b612ee283612cdc565b600080600060608486031215612f2157600080fd5b8335612f2c81612eaf565b92506020840135612f3c81612eaf565b929592945050506040919091013590565b600080600060408486031215612f6257600080fd5b612f6b84612cdc565b925060208401356001600160401b03811115612f8657600080fd5b612f9286828701612cf3565b9497909650939450505050565b634e487b7160e01b600052604160045260246000fd5b604051601f8201601f191681016001600160401b0381118282101715612fdd57612fdd612f9f565b604052919050565b60006001600160401b03821115612ffe57612ffe612f9f565b50601f01601f191660200190565b600082601f83011261301d57600080fd5b813561303061302b82612fe5565b612fb5565b81815284602083860101111561304557600080fd5b816020850160208301376000918101602001919091529392505050565b60008060006060848603121561307757600080fd5b61308084612cdc565b925060208401356001600160401b0381111561309b57600080fd5b6130a78682870161300c565b9250506130b660408501612d3b565b90509250925092565b6000602082840312156130d157600080fd5b813561154c81612eaf565b600080604083850312156130ef57600080fd5b6130f883612cdc565b915061310660208401612cdc565b90509250929050565b6000806040838503121561312257600080fd5b823561312d81612eaf565b91506020830135801515811461314257600080fd5b809150509250929050565b6000806000806080858703121561316357600080fd5b843561316e81612eaf565b9350602085013561317e81612eaf565b92506040850135915060608501356001600160401b038111156131a057600080fd5b6131ac8782880161300c565b91505092959194509250565b6000806000806000608086880312156131d057600080fd5b6131d986612cdc565b94506131e760208701612cdc565b93506040860135925060608601356001600160401b0381111561320957600080fd5b61321588828901612cf3565b969995985093965092949392505050565b60008060006060848603121561323b57600080fd5b61324484612cdc565b925061325260208501612cdc565b9150604084013590509250925092565b6000806040838503121561327557600080fd5b823561328081612eaf565b9150602083013561314281612eaf565b600080600080608085870312156132a657600080fd5b6132af85612cdc565b93506132bd60208601612cdc565b925060408501356132cd81612eaf565b9396929550929360600135925050565b600181811c908216806132f157607f821691505b60208210810361331157634e487b7160e01b600052602260045260246000fd5b50919050565b8183823760009101908152919050565b61ffff861681526001600160a01b038516602082015260a06040820181905260009061335590830186612e3c565b8415156060840152828103608084015261336f8185612e3c565b98975050505050505050565b6000806040838503121561338e57600080fd5b505080516020909101519092909150565b6020808252602d908201527f4552433732313a2063616c6c6572206973206e6f7420746f6b656e206f776e6560408201526c1c881bdc88185c1c1c9bdd9959609a1b606082015260800190565b81835281816020850137506000828201602090810191909152601f909101601f19169091010190565b61ffff84168152604060208201526000611c9e6040830184866133ec565b634e487b7160e01b600052601160045260246000fd5b81810381811115610afb57610afb613433565b80820180821115610afb57610afb613433565b60006001820161348157613481613433565b5060010190565b8284823760609190911b6bffffffffffffffffffffffff19169101908152601401919050565b601f821115610d5357600081815260208120601f850160051c810160208610156134d55750805b601f850160051c820191505b818110156112f2578281556001016134e1565b81516001600160401b0381111561350d5761350d612f9f565b6135218161351b84546132dd565b846134ae565b602080601f831160018114613556576000841561353e5750858301515b600019600386901b1c1916600185901b1785556112f2565b600085815260208120601f198616915b8281101561358557888601518255948401946001909101908401613566565b50858210156135a35787850151600019600388901b60f8161c191681555b5050505050600190811b01905550565b634e487b7160e01b600052601260045260246000fd5b6000826135d8576135d86135b3565b500690565b60008084546135eb816132dd565b60018281168015613603576001811461361857613647565b60ff1984168752821515830287019450613647565b8860005260208060002060005b8581101561363e5781548a820152908401908201613625565b50505082870194505b50505050835161365b818360208801612e18565b632e706e6760e01b9101908152600401949350505050565b6a3d9134b6b0b3b2911d101160a91b8152815160009061369a81600b850160208701612e18565b61227d60f01b600b939091019283015250600d01919050565b7f646174613a6170706c69636174696f6e2f6a736f6e3b6261736536342c0000008152600082516136eb81601d850160208701612e18565b91909101601d0192915050565b600061ffff8088168352808716602084015250846040830152608060608301526137266080830184866133ec565b979650505050505050565b61ffff8616815260806020820152600061374f6080830186886133ec565b6001600160401b0394909416604083015250606001529392505050565b6001600160401b0383111561378357613783612f9f565b6137978361379183546132dd565b836134ae565b6000601f8411600181146137cb57600085156137b35750838201355b600019600387901b1c1916600186901b178355610c15565b600083815260209020601f19861690835b828110156137fc57868501358255602094850194600190920191016137dc565b50868210156138195760001960f88860031b161c19848701351681555b505060018560011b0183555050505050565b60006020828403121561383d57600080fd5b81516001600160401b0381111561385357600080fd5b8201601f8101841361386457600080fd5b805161387261302b82612fe5565b81815285602083850101111561388757600080fd5b613898826020830160208601612e18565b95945050505050565b61ffff851681526080602082015260006138be6080830186612e3c565b6001600160401b038516604084015282810360608401526137268185612e3c565b61ffff8716815260c0602082015260006138fc60c0830188612e3c565b828103604084015261390e8188612e3c565b6001600160a01b0387811660608601528616608085015283810360a085015290506139398185612e3c565b9998505050505050505050565b60208082526025908201527f4552433732313a207472616e736665722066726f6d20696e636f72726563742060408201526437bbb732b960d91b606082015260800190565b6000806040838503121561399e57600080fd5b82516139a981612eaf565b6020939093015192949293505050565b60208082526032908201527f4552433732313a207472616e7366657220746f206e6f6e20455243373231526560408201527131b2b4bb32b91034b6b83632b6b2b73a32b960711b606082015260800190565b600082613a1a57613a1a6135b3565b500490565b8082028115828204841417610afb57610afb613433565b60008251613a48818460208701612e18565b9190910192915050565b61ffff8616815260a060208201526000613a6f60a0830187612e3c565b6001600160401b03861660408401528281036060840152613a908186612e3c565b9050828103608084015261336f8185612e3c565b6001600160a01b0385811682528416602082015260408101839052608060608201819052600090613ad790830184612e3c565b9695505050505050565b600060208284031215613af357600080fd5b815161154c81612de556fe4142434445464748494a4b4c4d4e4f505152535455565758595a6162636465666768696a6b6c6d6e6f707172737475767778797a303132333435363738392b2fa2646970667358221220566f31fdd05f2f80f7df6d94cebc454aba4a120a740779f4221090a2973c49df64736f6c63430008110033",
  "devdoc": {
    "kind": "dev",
    "methods": {
      "approve(address,uint256)": {
        "details": "See {IERC721-approve}."
      },
      "balanceOf(address)": {
        "details": "See {IERC721-balanceOf}."
      },
      "getApproved(uint256)": {
        "details": "See {IERC721-getApproved}."
      },
      "isApprovedForAll(address,address)": {
        "details": "See {IERC721-isApprovedForAll}."
      },
      "name()": {
        "details": "See {IERC721Metadata-name}."
      },
      "owner()": {
        "details": "Returns the address of the current owner."
      },
      "ownerOf(uint256)": {
        "details": "See {IERC721-ownerOf}."
      },
      "renounceOwnership()": {
        "details": "Leaves the contract without owner. It will not be possible to call `onlyOwner` functions anymore. Can only be called by the current owner. NOTE: Renouncing ownership will leave the contract without an owner, thereby removing any functionality that is only available to the owner."
      },
      "safeTransferFrom(address,address,uint256)": {
        "details": "See {IERC721-safeTransferFrom}."
      },
      "safeTransferFrom(address,address,uint256,bytes)": {
        "details": "See {IERC721-safeTransferFrom}."
      },
      "setApprovalForAll(address,bool)": {
        "details": "See {IERC721-setApprovalForAll}."
      },
      "supportsInterface(bytes4)": {
        "details": "See {IERC165-supportsInterface}."
      },
      "symbol()": {
        "details": "See {IERC721Metadata-symbol}."
      },
      "tokenURI(uint256)": {
        "details": "See {IERC721Metadata-tokenURI}."
      },
      "transferFrom(address,address,uint256)": {
        "details": "See {IERC721-transferFrom}."
      },
      "transferOwnership(address)": {
        "details": "Transfers ownership of the contract to a new account (`newOwner`). Can only be called by the current owner."
      }
    },
    "version": 1
  },
  "userdoc": {
    "kind": "user",
    "methods": {},
    "version": 1
  },
  "storageLayout": {
    "storage": [
      {
        "astId": 7,
        "contract": "contracts/LFGCrossChainNFT.sol:LFGCrossChainNFT",
        "label": "_owner",
        "offset": 0,
        "slot": "0",
        "type": "t_address"
      },
      {
        "astId": 3089,
        "contract": "contracts/LFGCrossChainNFT.sol:LFGCrossChainNFT",
        "label": "trustedRemoteLookup",
        "offset": 0,
        "slot": "1",
        "type": "t_mapping(t_uint16,t_bytes_storage)"
      },
      {
        "astId": 3095,
        "contract": "contracts/LFGCrossChainNFT.sol:LFGCrossChainNFT",
        "label": "minDstGasLookup",
        "offset": 0,
        "slot": "2",
        "type": "t_mapping(t_uint16,t_mapping(t_uint16,t_uint256))"
      },
      {
        "astId": 3099,
        "contract": "contracts/LFGCrossChainNFT.sol:LFGCrossChainNFT",
        "label": "payloadSizeLimitLookup",
        "offset": 0,
        "slot": "3",
        "type": "t_mapping(t_uint16,t_uint256)"
      },
      {
        "astId": 3101,
        "contract": "contracts/LFGCrossChainNFT.sol:LFGCrossChainNFT",
        "label": "precrime",
        "offset": 0,
        "slot": "4",
        "type": "t_address"
      },
      {
        "astId": 3638,
        "contract": "contracts/LFGCrossChainNFT.sol:LFGCrossChainNFT",
        "label": "failedMessages",
        "offset": 0,
        "slot": "5",
        "type": "t_mapping(t_uint16,t_mapping(t_bytes_memory_ptr,t_mapping(t_uint64,t_bytes32)))"
      },
      {
        "astId": 138,
        "contract": "contracts/LFGCrossChainNFT.sol:LFGCrossChainNFT",
        "label": "_name",
        "offset": 0,
        "slot": "6",
        "type": "t_string_storage"
      },
      {
        "astId": 140,
        "contract": "contracts/LFGCrossChainNFT.sol:LFGCrossChainNFT",
        "label": "_symbol",
        "offset": 0,
        "slot": "7",
        "type": "t_string_storage"
      },
      {
        "astId": 144,
        "contract": "contracts/LFGCrossChainNFT.sol:LFGCrossChainNFT",
        "label": "_owners",
        "offset": 0,
        "slot": "8",
        "type": "t_mapping(t_uint256,t_address)"
      },
      {
        "astId": 148,
        "contract": "contracts/LFGCrossChainNFT.sol:LFGCrossChainNFT",
        "label": "_balances",
        "offset": 0,
        "slot": "9",
        "type": "t_mapping(t_address,t_uint256)"
      },
      {
        "astId": 152,
        "contract": "contracts/LFGCrossChainNFT.sol:LFGCrossChainNFT",
        "label": "_tokenApprovals",
        "offset": 0,
        "slot": "10",
        "type": "t_mapping(t_uint256,t_address)"
      },
      {
        "astId": 158,
        "contract": "contracts/LFGCrossChainNFT.sol:LFGCrossChainNFT",
        "label": "_operatorApprovals",
        "offset": 0,
        "slot": "11",
        "type": "t_mapping(t_address,t_mapping(t_address,t_bool))"
      },
      {
        "astId": 2716,
        "contract": "contracts/LFGCrossChainNFT.sol:LFGCrossChainNFT",
        "label": "counter",
        "offset": 0,
        "slot": "12",
        "type": "t_uint256"
      },
      {
        "astId": 2718,
        "contract": "contracts/LFGCrossChainNFT.sol:LFGCrossChainNFT",
        "label": "currentTokenId",
        "offset": 0,
        "slot": "13",
        "type": "t_uint256"
      },
      {
        "astId": 2722,
        "contract": "contracts/LFGCrossChainNFT.sol:LFGCrossChainNFT",
        "label": "baseURI",
        "offset": 0,
        "slot": "14",
        "type": "t_string_storage"
      }
    ],
    "types": {
      "t_address": {
        "encoding": "inplace",
        "label": "address",
        "numberOfBytes": "20"
      },
      "t_bool": {
        "encoding": "inplace",
        "label": "bool",
        "numberOfBytes": "1"
      },
      "t_bytes32": {
        "encoding": "inplace",
        "label": "bytes32",
        "numberOfBytes": "32"
      },
      "t_bytes_memory_ptr": {
        "encoding": "bytes",
        "label": "bytes",
        "numberOfBytes": "32"
      },
      "t_bytes_storage": {
        "encoding": "bytes",
        "label": "bytes",
        "numberOfBytes": "32"
      },
      "t_mapping(t_address,t_bool)": {
        "encoding": "mapping",
        "key": "t_address",
        "label": "mapping(address => bool)",
        "numberOfBytes": "32",
        "value": "t_bool"
      },
      "t_mapping(t_address,t_mapping(t_address,t_bool))": {
        "encoding": "mapping",
        "key": "t_address",
        "label": "mapping(address => mapping(address => bool))",
        "numberOfBytes": "32",
        "value": "t_mapping(t_address,t_bool)"
      },
      "t_mapping(t_address,t_uint256)": {
        "encoding": "mapping",
        "key": "t_address",
        "label": "mapping(address => uint256)",
        "numberOfBytes": "32",
        "value": "t_uint256"
      },
      "t_mapping(t_bytes_memory_ptr,t_mapping(t_uint64,t_bytes32))": {
        "encoding": "mapping",
        "key": "t_bytes_memory_ptr",
        "label": "mapping(bytes => mapping(uint64 => bytes32))",
        "numberOfBytes": "32",
        "value": "t_mapping(t_uint64,t_bytes32)"
      },
      "t_mapping(t_uint16,t_bytes_storage)": {
        "encoding": "mapping",
        "key": "t_uint16",
        "label": "mapping(uint16 => bytes)",
        "numberOfBytes": "32",
        "value": "t_bytes_storage"
      },
      "t_mapping(t_uint16,t_mapping(t_bytes_memory_ptr,t_mapping(t_uint64,t_bytes32)))": {
        "encoding": "mapping",
        "key": "t_uint16",
        "label": "mapping(uint16 => mapping(bytes => mapping(uint64 => bytes32)))",
        "numberOfBytes": "32",
        "value": "t_mapping(t_bytes_memory_ptr,t_mapping(t_uint64,t_bytes32))"
      },
      "t_mapping(t_uint16,t_mapping(t_uint16,t_uint256))": {
        "encoding": "mapping",
        "key": "t_uint16",
        "label": "mapping(uint16 => mapping(uint16 => uint256))",
        "numberOfBytes": "32",
        "value": "t_mapping(t_uint16,t_uint256)"
      },
      "t_mapping(t_uint16,t_uint256)": {
        "encoding": "mapping",
        "key": "t_uint16",
        "label": "mapping(uint16 => uint256)",
        "numberOfBytes": "32",
        "value": "t_uint256"
      },
      "t_mapping(t_uint256,t_address)": {
        "encoding": "mapping",
        "key": "t_uint256",
        "label": "mapping(uint256 => address)",
        "numberOfBytes": "32",
        "value": "t_address"
      },
      "t_mapping(t_uint64,t_bytes32)": {
        "encoding": "mapping",
        "key": "t_uint64",
        "label": "mapping(uint64 => bytes32)",
        "numberOfBytes": "32",
        "value": "t_bytes32"
      },
      "t_string_storage": {
        "encoding": "bytes",
        "label": "string",
        "numberOfBytes": "32"
      },
      "t_uint16": {
        "encoding": "inplace",
        "label": "uint16",
        "numberOfBytes": "2"
      },
      "t_uint256": {
        "encoding": "inplace",
        "label": "uint256",
        "numberOfBytes": "32"
      },
      "t_uint64": {
        "encoding": "inplace",
        "label": "uint64",
        "numberOfBytes": "8"
      }
    }
  }
}