{
  "address": "0x43A4499Ed3EdD1AE5D902Bdb752e60d46AcB3093",
  "abi": [
    {
      "inputs": [
        {
          "internalType": "string",
          "name": "name",
          "type": "string"
        },
        {
          "internalType": "string",
          "name": "symbol",
          "type": "string"
        },
        {
          "internalType": "string",
          "name": "_baseUri",
          "type": "string"
        }
      ],
      "stateMutability": "nonpayable",
      "type": "constructor"
    },
    {
      "inputs": [],
      "name": "ApprovalCallerNotOwnerNorApproved",
      "type": "error"
    },
    {
      "inputs": [],
      "name": "ApprovalQueryForNonexistentToken",
      "type": "error"
    },
    {
      "inputs": [],
      "name": "BalanceQueryForZeroAddress",
      "type": "error"
    },
    {
      "inputs": [],
      "name": "MintERC2309QuantityExceedsLimit",
      "type": "error"
    },
    {
      "inputs": [],
      "name": "MintToZeroAddress",
      "type": "error"
    },
    {
      "inputs": [],
      "name": "MintZeroQuantity",
      "type": "error"
    },
    {
      "inputs": [],
      "name": "OwnerQueryForNonexistentToken",
      "type": "error"
    },
    {
      "inputs": [],
      "name": "OwnershipNotInitializedForExtraData",
      "type": "error"
    },
    {
      "inputs": [],
      "name": "TransferCallerNotOwnerNorApproved",
      "type": "error"
    },
    {
      "inputs": [],
      "name": "TransferFromIncorrectOwner",
      "type": "error"
    },
    {
      "inputs": [],
      "name": "TransferToNonERC721ReceiverImplementer",
      "type": "error"
    },
    {
      "inputs": [],
      "name": "TransferToZeroAddress",
      "type": "error"
    },
    {
      "inputs": [],
      "name": "URIQueryForNonexistentToken",
      "type": "error"
    },
    {
      "anonymous": false,
      "inputs": [
        {
          "indexed": true,
          "internalType": "address",
          "name": "owner",
          "type": "address"
        },
        {
          "indexed": true,
          "internalType": "address",
          "name": "approved",
          "type": "address"
        },
        {
          "indexed": true,
          "internalType": "uint256",
          "name": "tokenId",
          "type": "uint256"
        }
      ],
      "name": "Approval",
      "type": "event"
    },
    {
      "anonymous": false,
      "inputs": [
        {
          "indexed": true,
          "internalType": "address",
          "name": "owner",
          "type": "address"
        },
        {
          "indexed": true,
          "internalType": "address",
          "name": "operator",
          "type": "address"
        },
        {
          "indexed": false,
          "internalType": "bool",
          "name": "approved",
          "type": "bool"
        }
      ],
      "name": "ApprovalForAll",
      "type": "event"
    },
    {
      "anonymous": false,
      "inputs": [
        {
          "indexed": true,
          "internalType": "uint256",
          "name": "fromTokenId",
          "type": "uint256"
        },
        {
          "indexed": false,
          "internalType": "uint256",
          "name": "toTokenId",
          "type": "uint256"
        },
        {
          "indexed": true,
          "internalType": "address",
          "name": "from",
          "type": "address"
        },
        {
          "indexed": true,
          "internalType": "address",
          "name": "to",
          "type": "address"
        }
      ],
      "name": "ConsecutiveTransfer",
      "type": "event"
    },
    {
      "anonymous": false,
      "inputs": [
        {
          "indexed": true,
          "internalType": "address",
          "name": "from",
          "type": "address"
        },
        {
          "indexed": true,
          "internalType": "address",
          "name": "to",
          "type": "address"
        },
        {
          "indexed": true,
          "internalType": "uint256",
          "name": "tokenId",
          "type": "uint256"
        }
      ],
      "name": "Transfer",
      "type": "event"
    },
    {
      "inputs": [
        {
          "internalType": "address",
          "name": "to",
          "type": "address"
        },
        {
          "internalType": "uint256",
          "name": "tokenId",
          "type": "uint256"
        }
      ],
      "name": "approve",
      "outputs": [],
      "stateMutability": "payable",
      "type": "function"
    },
    {
      "inputs": [
        {
          "internalType": "address",
          "name": "owner",
          "type": "address"
        }
      ],
      "name": "balanceOf",
      "outputs": [
        {
          "internalType": "uint256",
          "name": "",
          "type": "uint256"
        }
      ],
      "stateMutability": "view",
      "type": "function"
    },
    {
      "inputs": [
        {
          "internalType": "uint256",
          "name": "tokenId",
          "type": "uint256"
        }
      ],
      "name": "getApproved",
      "outputs": [
        {
          "internalType": "address",
          "name": "",
          "type": "address"
        }
      ],
      "stateMutability": "view",
      "type": "function"
    },
    {
      "inputs": [
        {
          "internalType": "address",
          "name": "owner",
          "type": "address"
        },
        {
          "internalType": "address",
          "name": "operator",
          "type": "address"
        }
      ],
      "name": "isApprovedForAll",
      "outputs": [
        {
          "internalType": "bool",
          "name": "",
          "type": "bool"
        }
      ],
      "stateMutability": "view",
      "type": "function"
    },
    {
      "inputs": [
        {
          "internalType": "uint256",
          "name": "quantity",
          "type": "uint256"
        }
      ],
      "name": "mint",
      "outputs": [],
      "stateMutability": "payable",
      "type": "function"
    },
    {
      "inputs": [],
      "name": "name",
      "outputs": [
        {
          "internalType": "string",
          "name": "",
          "type": "string"
        }
      ],
      "stateMutability": "view",
      "type": "function"
    },
    {
      "inputs": [
        {
          "internalType": "uint256",
          "name": "tokenId",
          "type": "uint256"
        }
      ],
      "name": "ownerOf",
      "outputs": [
        {
          "internalType": "address",
          "name": "",
          "type": "address"
        }
      ],
      "stateMutability": "view",
      "type": "function"
    },
    {
      "inputs": [
        {
          "internalType": "address",
          "name": "from",
          "type": "address"
        },
        {
          "internalType": "address",
          "name": "to",
          "type": "address"
        },
        {
          "internalType": "uint256",
          "name": "tokenId",
          "type": "uint256"
        }
      ],
      "name": "safeTransferFrom",
      "outputs": [],
      "stateMutability": "payable",
      "type": "function"
    },
    {
      "inputs": [
        {
          "internalType": "address",
          "name": "from",
          "type": "address"
        },
        {
          "internalType": "address",
          "name": "to",
          "type": "address"
        },
        {
          "internalType": "uint256",
          "name": "tokenId",
          "type": "uint256"
        },
        {
          "internalType": "bytes",
          "name": "_data",
          "type": "bytes"
        }
      ],
      "name": "safeTransferFrom",
      "outputs": [],
      "stateMutability": "payable",
      "type": "function"
    },
    {
      "inputs": [
        {
          "internalType": "address",
          "name": "operator",
          "type": "address"
        },
        {
          "internalType": "bool",
          "name": "approved",
          "type": "bool"
        }
      ],
      "name": "setApprovalForAll",
      "outputs": [],
      "stateMutability": "nonpayable",
      "type": "function"
    },
    {
      "inputs": [
        {
          "internalType": "bytes4",
          "name": "interfaceId",
          "type": "bytes4"
        }
      ],
      "name": "supportsInterface",
      "outputs": [
        {
          "internalType": "bool",
          "name": "",
          "type": "bool"
        }
      ],
      "stateMutability": "view",
      "type": "function"
    },
    {
      "inputs": [],
      "name": "symbol",
      "outputs": [
        {
          "internalType": "string",
          "name": "",
          "type": "string"
        }
      ],
      "stateMutability": "view",
      "type": "function"
    },
    {
      "inputs": [
        {
          "internalType": "uint256",
          "name": "tokenId",
          "type": "uint256"
        }
      ],
      "name": "tokenURI",
      "outputs": [
        {
          "internalType": "string",
          "name": "",
          "type": "string"
        }
      ],
      "stateMutability": "view",
      "type": "function"
    },
    {
      "inputs": [],
      "name": "totalSupply",
      "outputs": [
        {
          "internalType": "uint256",
          "name": "",
          "type": "uint256"
        }
      ],
      "stateMutability": "view",
      "type": "function"
    },
    {
      "inputs": [
        {
          "internalType": "address",
          "name": "from",
          "type": "address"
        },
        {
          "internalType": "address",
          "name": "to",
          "type": "address"
        },
        {
          "internalType": "uint256",
          "name": "tokenId",
          "type": "uint256"
        }
      ],
      "name": "transferFrom",
      "outputs": [],
      "stateMutability": "payable",
      "type": "function"
    }
  ],
  "transactionHash": "0x32a7e993f148b51e100d4c1dd85d053585c934ec5242d6f7ef963609d7808e01",
  "args": [
    "DegenTime",
    "DGN",
    "https://gateway.pinata.cloud/ipfs/QmQtxJvWjXhEwL7RTKnntPRASsKH4FTVydmaVYnRteGzUp/"
  ],
  "numDeployments": 6,
  "solcInputHash": "9576da48f40bf1ae0b9fa8ded88cc46f",
  "bytecode": "0x60806040523480156200001157600080fd5b50604051620028dd380380620028dd8339818101604052810190620000379190620004a2565b828281600290816200004a9190620007a6565b5080600390816200005c9190620007a6565b506200006d620000a360201b60201c565b60008190555050508060089081620000869190620007a6565b506200009a33600a620000a860201b60201c565b5050506200088d565b600090565b60008054905060008203620000e9576040517fb562e8dd00000000000000000000000000000000000000000000000000000000815260040160405180910390fd5b620000fe60008483856200028f60201b60201c565b600160406001901b178202600560008573ffffffffffffffffffffffffffffffffffffffff1673ffffffffffffffffffffffffffffffffffffffff168152602001908152602001600020600082825401925050819055506200018d836200016f60008660006200029560201b60201c565b6200018085620002c560201b60201c565b17620002d560201b60201c565b6004600083815260200190815260200160002081905550600080838301905073ffffffffffffffffffffffffffffffffffffffff85169150828260007fddf252ad1be2c89b69c2b068fc378daa952ba7f163c4a11628f55a4df523b3ef600080a4600183015b8181146200023057808360007fddf252ad1be2c89b69c2b068fc378daa952ba7f163c4a11628f55a4df523b3ef600080a4600181019050620001f3565b50600082036200026c576040517f2e07630000000000000000000000000000000000000000000000000000000000815260040160405180910390fd5b8060008190555050506200028a60008483856200030060201b60201c565b505050565b50505050565b60008060e883901c905060e8620002b48686846200030660201b60201c565b62ffffff16901b9150509392505050565b60006001821460e11b9050919050565b600073ffffffffffffffffffffffffffffffffffffffff83169250814260a01b178317905092915050565b50505050565b60009392505050565b6000604051905090565b600080fd5b600080fd5b600080fd5b600080fd5b6000601f19601f8301169050919050565b7f4e487b7100000000000000000000000000000000000000000000000000000000600052604160045260246000fd5b62000378826200032d565b810181811067ffffffffffffffff821117156200039a57620003996200033e565b5b80604052505050565b6000620003af6200030f565b9050620003bd82826200036d565b919050565b600067ffffffffffffffff821115620003e057620003df6200033e565b5b620003eb826200032d565b9050602081019050919050565b60005b8381101562000418578082015181840152602081019050620003fb565b60008484015250505050565b60006200043b6200043584620003c2565b620003a3565b9050828152602081018484840111156200045a576200045962000328565b5b62000467848285620003f8565b509392505050565b600082601f83011262000487576200048662000323565b5b81516200049984826020860162000424565b91505092915050565b600080600060608486031215620004be57620004bd62000319565b5b600084015167ffffffffffffffff811115620004df57620004de6200031e565b5b620004ed868287016200046f565b935050602084015167ffffffffffffffff8111156200051157620005106200031e565b5b6200051f868287016200046f565b925050604084015167ffffffffffffffff8111156200054357620005426200031e565b5b62000551868287016200046f565b9150509250925092565b600081519050919050565b7f4e487b7100000000000000000000000000000000000000000000000000000000600052602260045260246000fd5b60006002820490506001821680620005ae57607f821691505b602082108103620005c457620005c362000566565b5b50919050565b60008190508160005260206000209050919050565b60006020601f8301049050919050565b600082821b905092915050565b6000600883026200062e7fffffffffffffffffffffffffffffffffffffffffffffffffffffffffffffffff82620005ef565b6200063a8683620005ef565b95508019841693508086168417925050509392505050565b6000819050919050565b6000819050919050565b600062000687620006816200067b8462000652565b6200065c565b62000652565b9050919050565b6000819050919050565b620006a38362000666565b620006bb620006b2826200068e565b848454620005fc565b825550505050565b600090565b620006d2620006c3565b620006df81848462000698565b505050565b5b818110156200070757620006fb600082620006c8565b600181019050620006e5565b5050565b601f82111562000756576200072081620005ca565b6200072b84620005df565b810160208510156200073b578190505b620007536200074a85620005df565b830182620006e4565b50505b505050565b600082821c905092915050565b60006200077b600019846008026200075b565b1980831691505092915050565b600062000796838362000768565b9150826002028217905092915050565b620007b1826200055b565b67ffffffffffffffff811115620007cd57620007cc6200033e565b5b620007d9825462000595565b620007e68282856200070b565b600060209050601f8311600181146200081e576000841562000809578287015190505b62000815858262000788565b86555062000885565b601f1984166200082e86620005ca565b60005b82811015620008585784890151825560018201915060208501945060208101905062000831565b8683101562000878578489015162000874601f89168262000768565b8355505b6001600288020188555050505b505050505050565b612040806200089d6000396000f3fe6080604052600436106100e85760003560e01c80636352211e1161008a578063a22cb46511610059578063a22cb465146102d2578063b88d4fde146102fb578063c87b56dd14610317578063e985e9c514610354576100e8565b80636352211e1461021157806370a082311461024e57806395d89b411461028b578063a0712d68146102b6576100e8565b8063095ea7b3116100c6578063095ea7b31461019257806318160ddd146101ae57806323b872dd146101d957806342842e0e146101f5576100e8565b806301ffc9a7146100ed57806306fdde031461012a578063081812fc14610155575b600080fd5b3480156100f957600080fd5b50610114600480360381019061010f9190611581565b610391565b60405161012191906115c9565b60405180910390f35b34801561013657600080fd5b5061013f610423565b60405161014c9190611674565b60405180910390f35b34801561016157600080fd5b5061017c600480360381019061017791906116cc565b6104b5565b604051610189919061173a565b60405180910390f35b6101ac60048036038101906101a79190611781565b610534565b005b3480156101ba57600080fd5b506101c3610678565b6040516101d091906117d0565b60405180910390f35b6101f360048036038101906101ee91906117eb565b61068f565b005b61020f600480360381019061020a91906117eb565b6109b1565b005b34801561021d57600080fd5b50610238600480360381019061023391906116cc565b6109d1565b604051610245919061173a565b60405180910390f35b34801561025a57600080fd5b506102756004803603810190610270919061183e565b6109e3565b60405161028291906117d0565b60405180910390f35b34801561029757600080fd5b506102a0610a9b565b6040516102ad9190611674565b60405180910390f35b6102d060048036038101906102cb91906116cc565b610b2d565b005b3480156102de57600080fd5b506102f960048036038101906102f49190611897565b610b3a565b005b61031560048036038101906103109190611a0c565b610c45565b005b34801561032357600080fd5b5061033e600480360381019061033991906116cc565b610cb8565b60405161034b9190611674565b60405180910390f35b34801561036057600080fd5b5061037b60048036038101906103769190611a8f565b610da8565b60405161038891906115c9565b60405180910390f35b60006301ffc9a760e01b827bffffffffffffffffffffffffffffffffffffffffffffffffffffffff191614806103ec57506380ac58cd60e01b827bffffffffffffffffffffffffffffffffffffffffffffffffffffffff1916145b8061041c5750635b5e139f60e01b827bffffffffffffffffffffffffffffffffffffffffffffffffffffffff1916145b9050919050565b60606002805461043290611afe565b80601f016020809104026020016040519081016040528092919081815260200182805461045e90611afe565b80156104ab5780601f10610480576101008083540402835291602001916104ab565b820191906000526020600020905b81548152906001019060200180831161048e57829003601f168201915b5050505050905090565b60006104c082610e3c565b6104f6576040517fcf4700e400000000000000000000000000000000000000000000000000000000815260040160405180910390fd5b6006600083815260200190815260200160002060000160009054906101000a900473ffffffffffffffffffffffffffffffffffffffff169050919050565b600061053f826109d1565b90508073ffffffffffffffffffffffffffffffffffffffff16610560610e9b565b73ffffffffffffffffffffffffffffffffffffffff16146105c35761058c81610587610e9b565b610da8565b6105c2576040517fcfb3b94200000000000000000000000000000000000000000000000000000000815260040160405180910390fd5b5b826006600084815260200190815260200160002060000160006101000a81548173ffffffffffffffffffffffffffffffffffffffff021916908373ffffffffffffffffffffffffffffffffffffffff160217905550818373ffffffffffffffffffffffffffffffffffffffff168273ffffffffffffffffffffffffffffffffffffffff167f8c5be1e5ebec7d5bd14f71427d1e84f3dd0314c0f7b2291e5b200ac8c7c3b92560405160405180910390a4505050565b6000610682610ea3565b6001546000540303905090565b600061069a82610ea8565b90508373ffffffffffffffffffffffffffffffffffffffff168173ffffffffffffffffffffffffffffffffffffffff1614610701576040517fa114810000000000000000000000000000000000000000000000000000000000815260040160405180910390fd5b60008061070d84610f74565b91509150610723818761071e610e9b565b610f9b565b61076f5761073886610733610e9b565b610da8565b61076e576040517f59c896be00000000000000000000000000000000000000000000000000000000815260040160405180910390fd5b5b600073ffffffffffffffffffffffffffffffffffffffff168573ffffffffffffffffffffffffffffffffffffffff16036107d5576040517fea553b3400000000000000000000000000000000000000000000000000000000815260040160405180910390fd5b6107e28686866001610fdf565b80156107ed57600082555b600560008773ffffffffffffffffffffffffffffffffffffffff1673ffffffffffffffffffffffffffffffffffffffff168152602001908152602001600020600081546001900391905081905550600560008673ffffffffffffffffffffffffffffffffffffffff1673ffffffffffffffffffffffffffffffffffffffff16815260200190815260200160002060008154600101919050819055506108bb85610897888887610fe5565b7c02000000000000000000000000000000000000000000000000000000001761100d565b600460008681526020019081526020016000208190555060007c0200000000000000000000000000000000000000000000000000000000841603610941576000600185019050600060046000838152602001908152602001600020540361093f57600054811461093e578360046000838152602001908152602001600020819055505b5b505b838573ffffffffffffffffffffffffffffffffffffffff168773ffffffffffffffffffffffffffffffffffffffff167fddf252ad1be2c89b69c2b068fc378daa952ba7f163c4a11628f55a4df523b3ef60405160405180910390a46109a98686866001611038565b505050505050565b6109cc83838360405180602001604052806000815250610c45565b505050565b60006109dc82610ea8565b9050919050565b60008073ffffffffffffffffffffffffffffffffffffffff168273ffffffffffffffffffffffffffffffffffffffff1603610a4a576040517f8f4eb60400000000000000000000000000000000000000000000000000000000815260040160405180910390fd5b67ffffffffffffffff600560008473ffffffffffffffffffffffffffffffffffffffff1673ffffffffffffffffffffffffffffffffffffffff16815260200190815260200160002054169050919050565b606060038054610aaa90611afe565b80601f0160208091040260200160405190810160405280929190818152602001828054610ad690611afe565b8015610b235780601f10610af857610100808354040283529160200191610b23565b820191906000526020600020905b815481529060010190602001808311610b0657829003601f168201915b5050505050905090565b610b37338261103e565b50565b8060076000610b47610e9b565b73ffffffffffffffffffffffffffffffffffffffff1673ffffffffffffffffffffffffffffffffffffffff16815260200190815260200160002060008473ffffffffffffffffffffffffffffffffffffffff1673ffffffffffffffffffffffffffffffffffffffff16815260200190815260200160002060006101000a81548160ff0219169083151502179055508173ffffffffffffffffffffffffffffffffffffffff16610bf4610e9b565b73ffffffffffffffffffffffffffffffffffffffff167f17307eab39ab6107e8899845ad3d59bd9653f200f220920489ca2b5937696c3183604051610c3991906115c9565b60405180910390a35050565b610c5084848461068f565b60008373ffffffffffffffffffffffffffffffffffffffff163b14610cb257610c7b848484846111f9565b610cb1576040517fd1a57ed600000000000000000000000000000000000000000000000000000000815260040160405180910390fd5b5b50505050565b6060610cc382610e3c565b610cf9576040517fa14c4b5000000000000000000000000000000000000000000000000000000000815260040160405180910390fd5b6000600283610d089190611b5e565b90506000808214610d1a576001610d1d565b60005b60ff1690506000610d766008610d3284611349565b604051602001610d43929190611caf565b604051602081830303815290604052604051602001610d629190611d76565b604051602081830303815290604052611399565b9050600081604051602001610d8b9190611def565b604051602081830303815290604052905080945050505050919050565b6000600760008473ffffffffffffffffffffffffffffffffffffffff1673ffffffffffffffffffffffffffffffffffffffff16815260200190815260200160002060008373ffffffffffffffffffffffffffffffffffffffff1673ffffffffffffffffffffffffffffffffffffffff16815260200190815260200160002060009054906101000a900460ff16905092915050565b600081610e47610ea3565b11158015610e56575060005482105b8015610e94575060007c0100000000000000000000000000000000000000000000000000000000600460008581526020019081526020016000205416145b9050919050565b600033905090565b600090565b60008082905080610eb7610ea3565b11610f3d57600054811015610f3c5760006004600083815260200190815260200160002054905060007c0100000000000000000000000000000000000000000000000000000000821603610f3a575b60008103610f30576004600083600190039350838152602001908152602001600020549050610f06565b8092505050610f6f565b505b5b6040517fdf2d9b4200000000000000000000000000000000000000000000000000000000815260040160405180910390fd5b919050565b60008060006006600085815260200190815260200160002090508092508254915050915091565b600073ffffffffffffffffffffffffffffffffffffffff8316925073ffffffffffffffffffffffffffffffffffffffff821691508382148383141790509392505050565b50505050565b60008060e883901c905060e8610ffc8686846114fc565b62ffffff16901b9150509392505050565b600073ffffffffffffffffffffffffffffffffffffffff83169250814260a01b178317905092915050565b50505050565b6000805490506000820361107e576040517fb562e8dd00000000000000000000000000000000000000000000000000000000815260040160405180910390fd5b61108b6000848385610fdf565b600160406001901b178202600560008573ffffffffffffffffffffffffffffffffffffffff1673ffffffffffffffffffffffffffffffffffffffff16815260200190815260200160002060008282540192505081905550611102836110f36000866000610fe5565b6110fc85611505565b1761100d565b6004600083815260200190815260200160002081905550600080838301905073ffffffffffffffffffffffffffffffffffffffff85169150828260007fddf252ad1be2c89b69c2b068fc378daa952ba7f163c4a11628f55a4df523b3ef600080a4600183015b8181146111a357808360007fddf252ad1be2c89b69c2b068fc378daa952ba7f163c4a11628f55a4df523b3ef600080a4600181019050611168565b50600082036111de576040517f2e07630000000000000000000000000000000000000000000000000000000000815260040160405180910390fd5b8060008190555050506111f46000848385611038565b505050565b60008373ffffffffffffffffffffffffffffffffffffffff1663150b7a0261121f610e9b565b8786866040518563ffffffff1660e01b81526004016112419493929190611e66565b6020604051808303816000875af192505050801561127d57506040513d601f19601f8201168201806040525081019061127a9190611ec7565b60015b6112f6573d80600081146112ad576040519150601f19603f3d011682016040523d82523d6000602084013e6112b2565b606091505b5060008151036112ee576040517fd1a57ed600000000000000000000000000000000000000000000000000000000815260040160405180910390fd5b805181602001fd5b63150b7a0260e01b7bffffffffffffffffffffffffffffffffffffffffffffffffffffffff1916817bffffffffffffffffffffffffffffffffffffffffffffffffffffffff191614915050949350505050565b606060a060405101806040526020810391506000825281835b60011561138457600184039350600a81066030018453600a8104905080611362575b50828103602084039350808452505050919050565b606060008251036113bb576040518060200160405280600081525090506114f7565b6000604051806060016040528060408152602001611fcb60409139905060006003600285516113ea9190611f23565b6113f49190611f57565b60046114009190611f88565b67ffffffffffffffff811115611419576114186118e1565b5b6040519080825280601f01601f19166020018201604052801561144b5781602001600182028036833780820191505090505b509050600182016020820185865187015b808210156114b7576003820191508151603f8160121c168501518453600184019350603f81600c1c168501518453600184019350603f8160061c168501518453600184019350603f811685015184536001840193505061145c565b50506003865106600181146114d357600281146114e6576114ee565b603d6001830353603d60028303536114ee565b603d60018303535b50505080925050505b919050565b60009392505050565b60006001821460e11b9050919050565b6000604051905090565b600080fd5b600080fd5b60007fffffffff0000000000000000000000000000000000000000000000000000000082169050919050565b61155e81611529565b811461156957600080fd5b50565b60008135905061157b81611555565b92915050565b6000602082840312156115975761159661151f565b5b60006115a58482850161156c565b91505092915050565b60008115159050919050565b6115c3816115ae565b82525050565b60006020820190506115de60008301846115ba565b92915050565b600081519050919050565b600082825260208201905092915050565b60005b8381101561161e578082015181840152602081019050611603565b60008484015250505050565b6000601f19601f8301169050919050565b6000611646826115e4565b61165081856115ef565b9350611660818560208601611600565b6116698161162a565b840191505092915050565b6000602082019050818103600083015261168e818461163b565b905092915050565b6000819050919050565b6116a981611696565b81146116b457600080fd5b50565b6000813590506116c6816116a0565b92915050565b6000602082840312156116e2576116e161151f565b5b60006116f0848285016116b7565b91505092915050565b600073ffffffffffffffffffffffffffffffffffffffff82169050919050565b6000611724826116f9565b9050919050565b61173481611719565b82525050565b600060208201905061174f600083018461172b565b92915050565b61175e81611719565b811461176957600080fd5b50565b60008135905061177b81611755565b92915050565b600080604083850312156117985761179761151f565b5b60006117a68582860161176c565b92505060206117b7858286016116b7565b9150509250929050565b6117ca81611696565b82525050565b60006020820190506117e560008301846117c1565b92915050565b6000806000606084860312156118045761180361151f565b5b60006118128682870161176c565b93505060206118238682870161176c565b9250506040611834868287016116b7565b9150509250925092565b6000602082840312156118545761185361151f565b5b60006118628482850161176c565b91505092915050565b611874816115ae565b811461187f57600080fd5b50565b6000813590506118918161186b565b92915050565b600080604083850312156118ae576118ad61151f565b5b60006118bc8582860161176c565b92505060206118cd85828601611882565b9150509250929050565b600080fd5b600080fd5b7f4e487b7100000000000000000000000000000000000000000000000000000000600052604160045260246000fd5b6119198261162a565b810181811067ffffffffffffffff82111715611938576119376118e1565b5b80604052505050565b600061194b611515565b90506119578282611910565b919050565b600067ffffffffffffffff821115611977576119766118e1565b5b6119808261162a565b9050602081019050919050565b82818337600083830152505050565b60006119af6119aa8461195c565b611941565b9050828152602081018484840111156119cb576119ca6118dc565b5b6119d684828561198d565b509392505050565b600082601f8301126119f3576119f26118d7565b5b8135611a0384826020860161199c565b91505092915050565b60008060008060808587031215611a2657611a2561151f565b5b6000611a348782880161176c565b9450506020611a458782880161176c565b9350506040611a56878288016116b7565b925050606085013567ffffffffffffffff811115611a7757611a76611524565b5b611a83878288016119de565b91505092959194509250565b60008060408385031215611aa657611aa561151f565b5b6000611ab48582860161176c565b9250506020611ac58582860161176c565b9150509250929050565b7f4e487b7100000000000000000000000000000000000000000000000000000000600052602260045260246000fd5b60006002820490506001821680611b1657607f821691505b602082108103611b2957611b28611acf565b5b50919050565b7f4e487b7100000000000000000000000000000000000000000000000000000000600052601260045260246000fd5b6000611b6982611696565b9150611b7483611696565b925082611b8457611b83611b2f565b5b828206905092915050565b600081905092915050565b60008190508160005260206000209050919050565b60008154611bbc81611afe565b611bc68186611b8f565b94506001821660008114611be15760018114611bf657611c29565b60ff1983168652811515820286019350611c29565b611bff85611b9a565b60005b83811015611c2157815481890152600182019150602081019050611c02565b838801955050505b50505092915050565b6000611c3d826115e4565b611c478185611b8f565b9350611c57818560208601611600565b80840191505092915050565b7f2e706e6700000000000000000000000000000000000000000000000000000000600082015250565b6000611c99600483611b8f565b9150611ca482611c63565b600482019050919050565b6000611cbb8285611baf565b9150611cc78284611c32565b9150611cd282611c8c565b91508190509392505050565b7f7b22696d616765223a2022000000000000000000000000000000000000000000600082015250565b6000611d14600b83611b8f565b9150611d1f82611cde565b600b82019050919050565b7f227d000000000000000000000000000000000000000000000000000000000000600082015250565b6000611d60600283611b8f565b9150611d6b82611d2a565b600282019050919050565b6000611d8182611d07565b9150611d8d8284611c32565b9150611d9882611d53565b915081905092915050565b7f646174613a6170706c69636174696f6e2f6a736f6e3b6261736536342c000000600082015250565b6000611dd9601d83611b8f565b9150611de482611da3565b601d82019050919050565b6000611dfa82611dcc565b9150611e068284611c32565b915081905092915050565b600081519050919050565b600082825260208201905092915050565b6000611e3882611e11565b611e428185611e1c565b9350611e52818560208601611600565b611e5b8161162a565b840191505092915050565b6000608082019050611e7b600083018761172b565b611e88602083018661172b565b611e9560408301856117c1565b8181036060830152611ea78184611e2d565b905095945050505050565b600081519050611ec181611555565b92915050565b600060208284031215611edd57611edc61151f565b5b6000611eeb84828501611eb2565b91505092915050565b7f4e487b7100000000000000000000000000000000000000000000000000000000600052601160045260246000fd5b6000611f2e82611696565b9150611f3983611696565b9250828201905080821115611f5157611f50611ef4565b5b92915050565b6000611f6282611696565b9150611f6d83611696565b925082611f7d57611f7c611b2f565b5b828204905092915050565b6000611f9382611696565b9150611f9e83611696565b9250828202611fac81611696565b91508282048414831517611fc357611fc2611ef4565b5b509291505056fe4142434445464748494a4b4c4d4e4f505152535455565758595a6162636465666768696a6b6c6d6e6f707172737475767778797a303132333435363738392b2fa2646970667358221220a85fbd69c05a1ff2b3af7d2b656b0c2b5b00b5f251f786b04181e10a8df4793364736f6c63430008110033",
  "devdoc": {
    "kind": "dev",
    "methods": {
      "approve(address,uint256)": {
        "details": "Gives permission to `to` to transfer `tokenId` token to another account. The approval is cleared when the token is transferred. Only a single account can be approved at a time, so approving the zero address clears previous approvals. Requirements: - The caller must own the token or be an approved operator. - `tokenId` must exist. Emits an {Approval} event."
      },
      "balanceOf(address)": {
        "details": "Returns the number of tokens in `owner`'s account."
      },
      "getApproved(uint256)": {
        "details": "Returns the account approved for `tokenId` token. Requirements: - `tokenId` must exist."
      },
      "isApprovedForAll(address,address)": {
        "details": "Returns if the `operator` is allowed to manage all of the assets of `owner`. See {setApprovalForAll}."
      },
      "name()": {
        "details": "Returns the token collection name."
      },
      "ownerOf(uint256)": {
        "details": "Returns the owner of the `tokenId` token. Requirements: - `tokenId` must exist."
      },
      "safeTransferFrom(address,address,uint256)": {
        "details": "Equivalent to `safeTransferFrom(from, to, tokenId, '')`."
      },
      "safeTransferFrom(address,address,uint256,bytes)": {
        "details": "Safely transfers `tokenId` token from `from` to `to`. Requirements: - `from` cannot be the zero address. - `to` cannot be the zero address. - `tokenId` token must exist and be owned by `from`. - If the caller is not `from`, it must be approved to move this token by either {approve} or {setApprovalForAll}. - If `to` refers to a smart contract, it must implement {IERC721Receiver-onERC721Received}, which is called upon a safe transfer. Emits a {Transfer} event."
      },
      "setApprovalForAll(address,bool)": {
        "details": "Approve or remove `operator` as an operator for the caller. Operators can call {transferFrom} or {safeTransferFrom} for any token owned by the caller. Requirements: - The `operator` cannot be the caller. Emits an {ApprovalForAll} event."
      },
      "supportsInterface(bytes4)": {
        "details": "Returns true if this contract implements the interface defined by `interfaceId`. See the corresponding [EIP section](https://eips.ethereum.org/EIPS/eip-165#how-interfaces-are-identified) to learn more about how these ids are created. This function call must use less than 30000 gas."
      },
      "symbol()": {
        "details": "Returns the token collection symbol."
      },
      "tokenURI(uint256)": {
        "details": "Returns the Uniform Resource Identifier (URI) for `tokenId` token."
      },
      "totalSupply()": {
        "details": "Returns the total number of tokens in existence. Burned tokens will reduce the count. To get the total number of tokens minted, please see {_totalMinted}."
      },
      "transferFrom(address,address,uint256)": {
        "details": "Transfers `tokenId` from `from` to `to`. Requirements: - `from` cannot be the zero address. - `to` cannot be the zero address. - `tokenId` token must be owned by `from`. - If the caller is not `from`, it must be approved to move this token by either {approve} or {setApprovalForAll}. Emits a {Transfer} event."
      }
    },
    "version": 1
  },
  "userdoc": {
    "errors": {
      "ApprovalCallerNotOwnerNorApproved()": [
        {
          "notice": "The caller must own the token or be an approved operator."
        }
      ],
      "ApprovalQueryForNonexistentToken()": [
        {
          "notice": "The token does not exist."
        }
      ],
      "BalanceQueryForZeroAddress()": [
        {
          "notice": "Cannot query the balance for the zero address."
        }
      ],
      "MintERC2309QuantityExceedsLimit()": [
        {
          "notice": "The `quantity` minted with ERC2309 exceeds the safety limit."
        }
      ],
      "MintToZeroAddress()": [
        {
          "notice": "Cannot mint to the zero address."
        }
      ],
      "MintZeroQuantity()": [
        {
          "notice": "The quantity of tokens minted must be more than zero."
        }
      ],
      "OwnerQueryForNonexistentToken()": [
        {
          "notice": "The token does not exist."
        }
      ],
      "OwnershipNotInitializedForExtraData()": [
        {
          "notice": "The `extraData` cannot be set on an unintialized ownership slot."
        }
      ],
      "TransferCallerNotOwnerNorApproved()": [
        {
          "notice": "The caller must own the token or be an approved operator."
        }
      ],
      "TransferFromIncorrectOwner()": [
        {
          "notice": "The token must be owned by `from`."
        }
      ],
      "TransferToNonERC721ReceiverImplementer()": [
        {
          "notice": "Cannot safely transfer to a contract that does not implement the ERC721Receiver interface."
        }
      ],
      "TransferToZeroAddress()": [
        {
          "notice": "Cannot transfer to the zero address."
        }
      ],
      "URIQueryForNonexistentToken()": [
        {
          "notice": "The token does not exist."
        }
      ]
    },
    "kind": "user",
    "methods": {},
    "version": 1
  },
  "storageLayout": {
    "storage": [
      {
        "astId": 259,
        "contract": "contracts/MyTestNFT.sol:MyTestNFT",
        "label": "_currentIndex",
        "offset": 0,
        "slot": "0",
        "type": "t_uint256"
      },
      {
        "astId": 261,
        "contract": "contracts/MyTestNFT.sol:MyTestNFT",
        "label": "_burnCounter",
        "offset": 0,
        "slot": "1",
        "type": "t_uint256"
      },
      {
        "astId": 263,
        "contract": "contracts/MyTestNFT.sol:MyTestNFT",
        "label": "_name",
        "offset": 0,
        "slot": "2",
        "type": "t_string_storage"
      },
      {
        "astId": 265,
        "contract": "contracts/MyTestNFT.sol:MyTestNFT",
        "label": "_symbol",
        "offset": 0,
        "slot": "3",
        "type": "t_string_storage"
      },
      {
        "astId": 269,
        "contract": "contracts/MyTestNFT.sol:MyTestNFT",
        "label": "_packedOwnerships",
        "offset": 0,
        "slot": "4",
        "type": "t_mapping(t_uint256,t_uint256)"
      },
      {
        "astId": 273,
        "contract": "contracts/MyTestNFT.sol:MyTestNFT",
        "label": "_packedAddressData",
        "offset": 0,
        "slot": "5",
        "type": "t_mapping(t_address,t_uint256)"
      },
      {
        "astId": 278,
        "contract": "contracts/MyTestNFT.sol:MyTestNFT",
        "label": "_tokenApprovals",
        "offset": 0,
        "slot": "6",
        "type": "t_mapping(t_uint256,t_struct(TokenApprovalRef)191_storage)"
      },
      {
        "astId": 284,
        "contract": "contracts/MyTestNFT.sol:MyTestNFT",
        "label": "_operatorApprovals",
        "offset": 0,
        "slot": "7",
        "type": "t_mapping(t_address,t_mapping(t_address,t_bool))"
      },
      {
        "astId": 54,
        "contract": "contracts/MyTestNFT.sol:MyTestNFT",
        "label": "baseURI",
        "offset": 0,
        "slot": "8",
        "type": "t_string_storage"
      }
    ],
    "types": {
      "t_address": {
        "encoding": "inplace",
        "label": "address",
        "numberOfBytes": "20"
      },
      "t_bool": {
        "encoding": "inplace",
        "label": "bool",
        "numberOfBytes": "1"
      },
      "t_mapping(t_address,t_bool)": {
        "encoding": "mapping",
        "key": "t_address",
        "label": "mapping(address => bool)",
        "numberOfBytes": "32",
        "value": "t_bool"
      },
      "t_mapping(t_address,t_mapping(t_address,t_bool))": {
        "encoding": "mapping",
        "key": "t_address",
        "label": "mapping(address => mapping(address => bool))",
        "numberOfBytes": "32",
        "value": "t_mapping(t_address,t_bool)"
      },
      "t_mapping(t_address,t_uint256)": {
        "encoding": "mapping",
        "key": "t_address",
        "label": "mapping(address => uint256)",
        "numberOfBytes": "32",
        "value": "t_uint256"
      },
      "t_mapping(t_uint256,t_struct(TokenApprovalRef)191_storage)": {
        "encoding": "mapping",
        "key": "t_uint256",
        "label": "mapping(uint256 => struct ERC721A.TokenApprovalRef)",
        "numberOfBytes": "32",
        "value": "t_struct(TokenApprovalRef)191_storage"
      },
      "t_mapping(t_uint256,t_uint256)": {
        "encoding": "mapping",
        "key": "t_uint256",
        "label": "mapping(uint256 => uint256)",
        "numberOfBytes": "32",
        "value": "t_uint256"
      },
      "t_string_storage": {
        "encoding": "bytes",
        "label": "string",
        "numberOfBytes": "32"
      },
      "t_struct(TokenApprovalRef)191_storage": {
        "encoding": "inplace",
        "label": "struct ERC721A.TokenApprovalRef",
        "members": [
          {
            "astId": 190,
            "contract": "contracts/MyTestNFT.sol:MyTestNFT",
            "label": "value",
            "offset": 0,
            "slot": "0",
            "type": "t_address"
          }
        ],
        "numberOfBytes": "32"
      },
      "t_uint256": {
        "encoding": "inplace",
        "label": "uint256",
        "numberOfBytes": "32"
      }
    }
  }
}